{
	"contracts/Learning.sol": {
		"calculator": {
			"abi": [
				{
					"inputs": [
						{
							"internalType": "uint256",
							"name": "payablevalue",
							"type": "uint256"
						}
					],
					"stateMutability": "nonpayable",
					"type": "constructor"
				},
				{
					"inputs": [
						{
							"internalType": "uint256",
							"name": "_value",
							"type": "uint256"
						}
					],
					"name": "add",
					"outputs": [],
					"stateMutability": "nonpayable",
					"type": "function"
				},
				{
					"inputs": [
						{
							"internalType": "uint256",
							"name": "_value",
							"type": "uint256"
						}
					],
					"name": "div",
					"outputs": [],
					"stateMutability": "nonpayable",
					"type": "function"
				},
				{
					"inputs": [],
					"name": "getValue",
					"outputs": [
						{
							"internalType": "uint256",
							"name": "",
							"type": "uint256"
						}
					],
					"stateMutability": "view",
					"type": "function"
				},
				{
					"inputs": [
						{
							"internalType": "uint256",
							"name": "_value",
							"type": "uint256"
						}
					],
					"name": "mul",
					"outputs": [],
					"stateMutability": "nonpayable",
					"type": "function"
				},
				{
					"inputs": [
						{
							"internalType": "uint256",
							"name": "_value",
							"type": "uint256"
						}
					],
					"name": "sub",
					"outputs": [],
					"stateMutability": "nonpayable",
					"type": "function"
				}
			],
			"devdoc": {
				"kind": "dev",
				"methods": {},
				"version": 1
			},
			"evm": {
				"assembly": "    /* \"contracts/Learning.sol\":292:926  contract calculator{... */\n  mstore(0x40, 0x80)\n    /* \"contracts/Learning.sol\":343:480  constructor (uint256 payablevalue){... */\n  callvalue\n  dup1\n  iszero\n  tag_1\n  jumpi\n  revert(0x00, 0x00)\ntag_1:\n  pop\n  mload(0x40)\n  sub(codesize, bytecodeSize)\n  dup1\n  bytecodeSize\n  dup4\n  codecopy\n  dup2\n  dup2\n  add\n  0x40\n  mstore\n  dup2\n  add\n  swap1\n  tag_2\n  swap2\n  swap1\n  tag_3\n  jump\t// in\ntag_2:\n    /* \"contracts/Learning.sol\":400:412  payablevalue */\n  dup1\n    /* \"contracts/Learning.sol\":387:399  currentvalue */\n  0x00\n    /* \"contracts/Learning.sol\":387:412  currentvalue=payablevalue */\n  dup2\n  swap1\n  sstore\n  pop\n    /* \"contracts/Learning.sol\":343:480  constructor (uint256 payablevalue){... */\n  pop\n    /* \"contracts/Learning.sol\":292:926  contract calculator{... */\n  jump(tag_6)\n    /* \"#utility.yul\":88:205   */\ntag_8:\n    /* \"#utility.yul\":197:198   */\n  0x00\n    /* \"#utility.yul\":194:195   */\n  0x00\n    /* \"#utility.yul\":187:199   */\n  revert\n    /* \"#utility.yul\":334:411   */\ntag_10:\n    /* \"#utility.yul\":371:378   */\n  0x00\n    /* \"#utility.yul\":400:405   */\n  dup2\n    /* \"#utility.yul\":389:405   */\n  swap1\n  pop\n    /* \"#utility.yul\":334:411   */\n  swap2\n  swap1\n  pop\n  jump\t// out\n    /* \"#utility.yul\":417:539   */\ntag_11:\n    /* \"#utility.yul\":490:514   */\n  tag_19\n    /* \"#utility.yul\":508:513   */\n  dup2\n    /* \"#utility.yul\":490:514   */\n  tag_10\n  jump\t// in\ntag_19:\n    /* \"#utility.yul\":483:488   */\n  dup2\n    /* \"#utility.yul\":480:515   */\n  eq\n    /* \"#utility.yul\":470:533   */\n  tag_20\n  jumpi\n    /* \"#utility.yul\":529:530   */\n  0x00\n    /* \"#utility.yul\":526:527   */\n  0x00\n    /* \"#utility.yul\":519:531   */\n  revert\n    /* \"#utility.yul\":470:533   */\ntag_20:\n    /* \"#utility.yul\":417:539   */\n  pop\n  jump\t// out\n    /* \"#utility.yul\":545:688   */\ntag_12:\n    /* \"#utility.yul\":602:607   */\n  0x00\n    /* \"#utility.yul\":633:639   */\n  dup2\n    /* \"#utility.yul\":627:640   */\n  mload\n    /* \"#utility.yul\":618:640   */\n  swap1\n  pop\n    /* \"#utility.yul\":649:682   */\n  tag_22\n    /* \"#utility.yul\":676:681   */\n  dup2\n    /* \"#utility.yul\":649:682   */\n  tag_11\n  jump\t// in\ntag_22:\n    /* \"#utility.yul\":545:688   */\n  swap3\n  swap2\n  pop\n  pop\n  jump\t// out\n    /* \"#utility.yul\":694:1045   */\ntag_3:\n    /* \"#utility.yul\":764:770   */\n  0x00\n    /* \"#utility.yul\":813:815   */\n  0x20\n    /* \"#utility.yul\":801:810   */\n  dup3\n    /* \"#utility.yul\":792:799   */\n  dup5\n    /* \"#utility.yul\":788:811   */\n  sub\n    /* \"#utility.yul\":784:816   */\n  slt\n    /* \"#utility.yul\":781:900   */\n  iszero\n  tag_24\n  jumpi\n    /* \"#utility.yul\":819:898   */\n  tag_25\n  tag_8\n  jump\t// in\ntag_25:\n    /* \"#utility.yul\":781:900   */\ntag_24:\n    /* \"#utility.yul\":939:940   */\n  0x00\n    /* \"#utility.yul\":964:1028   */\n  tag_26\n    /* \"#utility.yul\":1020:1027   */\n  dup5\n    /* \"#utility.yul\":1011:1017   */\n  dup3\n    /* \"#utility.yul\":1000:1009   */\n  dup6\n    /* \"#utility.yul\":996:1018   */\n  add\n    /* \"#utility.yul\":964:1028   */\n  tag_12\n  jump\t// in\ntag_26:\n    /* \"#utility.yul\":954:1028   */\n  swap2\n  pop\n    /* \"#utility.yul\":910:1038   */\n  pop\n    /* \"#utility.yul\":694:1045   */\n  swap3\n  swap2\n  pop\n  pop\n  jump\t// out\n    /* \"contracts/Learning.sol\":292:926  contract calculator{... */\ntag_6:\n  dataSize(sub_0)\n  dup1\n  dataOffset(sub_0)\n  0x00\n  codecopy\n  0x00\n  return\nstop\n\nsub_0: assembly {\n        /* \"contracts/Learning.sol\":292:926  contract calculator{... */\n      mstore(0x40, 0x80)\n      callvalue\n      dup1\n      iszero\n      tag_1\n      jumpi\n      revert(0x00, 0x00)\n    tag_1:\n      pop\n      jumpi(tag_2, lt(calldatasize, 0x04))\n      shr(0xe0, calldataload(0x00))\n      dup1\n      0x1003e2d2\n      eq\n      tag_3\n      jumpi\n      dup1\n      0x131e2f18\n      eq\n      tag_4\n      jumpi\n      dup1\n      0x20965255\n      eq\n      tag_5\n      jumpi\n      dup1\n      0x27ee58a6\n      eq\n      tag_6\n      jumpi\n      dup1\n      0xeba31cc4\n      eq\n      tag_7\n      jumpi\n    tag_2:\n      revert(0x00, 0x00)\n        /* \"contracts/Learning.sol\":485:556  function add(uint256 _value)public{... */\n    tag_3:\n      tag_8\n      0x04\n      dup1\n      calldatasize\n      sub\n      dup2\n      add\n      swap1\n      tag_9\n      swap2\n      swap1\n      tag_10\n      jump\t// in\n    tag_9:\n      tag_11\n      jump\t// in\n    tag_8:\n      stop\n        /* \"contracts/Learning.sol\":637:706  function mul(uint _value)public{... */\n    tag_4:\n      tag_12\n      0x04\n      dup1\n      calldatasize\n      sub\n      dup2\n      add\n      swap1\n      tag_13\n      swap2\n      swap1\n      tag_10\n      jump\t// in\n    tag_13:\n      tag_14\n      jump\t// in\n    tag_12:\n      stop\n        /* \"contracts/Learning.sol\":836:920  function getValue()public view returns(uint256) {... */\n    tag_5:\n      tag_15\n      tag_16\n      jump\t// in\n    tag_15:\n      mload(0x40)\n      tag_17\n      swap2\n      swap1\n      tag_18\n      jump\t// in\n    tag_17:\n      mload(0x40)\n      dup1\n      swap2\n      sub\n      swap1\n      return\n        /* \"contracts/Learning.sol\":561:632  function sub(uint256 _value)public{... */\n    tag_6:\n      tag_19\n      0x04\n      dup1\n      calldatasize\n      sub\n      dup2\n      add\n      swap1\n      tag_20\n      swap2\n      swap1\n      tag_10\n      jump\t// in\n    tag_20:\n      tag_21\n      jump\t// in\n    tag_19:\n      stop\n        /* \"contracts/Learning.sol\":711:831  function div(uint _value)public{... */\n    tag_7:\n      tag_22\n      0x04\n      dup1\n      calldatasize\n      sub\n      dup2\n      add\n      swap1\n      tag_23\n      swap2\n      swap1\n      tag_10\n      jump\t// in\n    tag_23:\n      tag_24\n      jump\t// in\n    tag_22:\n      stop\n        /* \"contracts/Learning.sol\":485:556  function add(uint256 _value)public{... */\n    tag_11:\n        /* \"contracts/Learning.sol\":543:549  _value */\n      dup1\n        /* \"contracts/Learning.sol\":529:541  currentvalue */\n      0x00\n      0x00\n        /* \"contracts/Learning.sol\":529:549  currentvalue+=_value */\n      dup3\n      dup3\n      sload\n      tag_26\n      swap2\n      swap1\n      tag_27\n      jump\t// in\n    tag_26:\n      swap3\n      pop\n      pop\n      dup2\n      swap1\n      sstore\n      pop\n        /* \"contracts/Learning.sol\":485:556  function add(uint256 _value)public{... */\n      pop\n      jump\t// out\n        /* \"contracts/Learning.sol\":637:706  function mul(uint _value)public{... */\n    tag_14:\n        /* \"contracts/Learning.sol\":693:699  _value */\n      dup1\n        /* \"contracts/Learning.sol\":678:690  currentvalue */\n      0x00\n      0x00\n        /* \"contracts/Learning.sol\":678:699  currentvalue*= _value */\n      dup3\n      dup3\n      sload\n      tag_29\n      swap2\n      swap1\n      tag_30\n      jump\t// in\n    tag_29:\n      swap3\n      pop\n      pop\n      dup2\n      swap1\n      sstore\n      pop\n        /* \"contracts/Learning.sol\":637:706  function mul(uint _value)public{... */\n      pop\n      jump\t// out\n        /* \"contracts/Learning.sol\":836:920  function getValue()public view returns(uint256) {... */\n    tag_16:\n        /* \"contracts/Learning.sol\":875:882  uint256 */\n      0x00\n        /* \"contracts/Learning.sol\":901:913  currentvalue */\n      sload(0x00)\n        /* \"contracts/Learning.sol\":894:913  return currentvalue */\n      swap1\n      pop\n        /* \"contracts/Learning.sol\":836:920  function getValue()public view returns(uint256) {... */\n      swap1\n      jump\t// out\n        /* \"contracts/Learning.sol\":561:632  function sub(uint256 _value)public{... */\n    tag_21:\n        /* \"contracts/Learning.sol\":619:625  _value */\n      dup1\n        /* \"contracts/Learning.sol\":605:617  currentvalue */\n      0x00\n      0x00\n        /* \"contracts/Learning.sol\":605:625  currentvalue-=_value */\n      dup3\n      dup3\n      sload\n      tag_33\n      swap2\n      swap1\n      tag_34\n      jump\t// in\n    tag_33:\n      swap3\n      pop\n      pop\n      dup2\n      swap1\n      sstore\n      pop\n        /* \"contracts/Learning.sol\":561:632  function sub(uint256 _value)public{... */\n      pop\n      jump\t// out\n        /* \"contracts/Learning.sol\":711:831  function div(uint _value)public{... */\n    tag_24:\n        /* \"contracts/Learning.sol\":768:769  0 */\n      0x00\n        /* \"contracts/Learning.sol\":760:766  _value */\n      dup2\n        /* \"contracts/Learning.sol\":760:769  _value!=0 */\n      sub\n        /* \"contracts/Learning.sol\":752:794  require(_value!=0,\"cannot divide by zero\") */\n      tag_36\n      jumpi\n      mload(0x40)\n      0x08c379a000000000000000000000000000000000000000000000000000000000\n      dup2\n      mstore\n      0x04\n      add\n      tag_37\n      swap1\n      tag_38\n      jump\t// in\n    tag_37:\n      mload(0x40)\n      dup1\n      swap2\n      sub\n      swap1\n      revert\n    tag_36:\n        /* \"contracts/Learning.sol\":818:824  _value */\n      dup1\n        /* \"contracts/Learning.sol\":804:816  currentvalue */\n      0x00\n      0x00\n        /* \"contracts/Learning.sol\":804:824  currentvalue/=_value */\n      dup3\n      dup3\n      sload\n      tag_39\n      swap2\n      swap1\n      tag_40\n      jump\t// in\n    tag_39:\n      swap3\n      pop\n      pop\n      dup2\n      swap1\n      sstore\n      pop\n        /* \"contracts/Learning.sol\":711:831  function div(uint _value)public{... */\n      pop\n      jump\t// out\n        /* \"#utility.yul\":88:205   */\n    tag_42:\n        /* \"#utility.yul\":197:198   */\n      0x00\n        /* \"#utility.yul\":194:195   */\n      0x00\n        /* \"#utility.yul\":187:199   */\n      revert\n        /* \"#utility.yul\":334:411   */\n    tag_44:\n        /* \"#utility.yul\":371:378   */\n      0x00\n        /* \"#utility.yul\":400:405   */\n      dup2\n        /* \"#utility.yul\":389:405   */\n      swap1\n      pop\n        /* \"#utility.yul\":334:411   */\n      swap2\n      swap1\n      pop\n      jump\t// out\n        /* \"#utility.yul\":417:539   */\n    tag_45:\n        /* \"#utility.yul\":490:514   */\n      tag_59\n        /* \"#utility.yul\":508:513   */\n      dup2\n        /* \"#utility.yul\":490:514   */\n      tag_44\n      jump\t// in\n    tag_59:\n        /* \"#utility.yul\":483:488   */\n      dup2\n        /* \"#utility.yul\":480:515   */\n      eq\n        /* \"#utility.yul\":470:533   */\n      tag_60\n      jumpi\n        /* \"#utility.yul\":529:530   */\n      0x00\n        /* \"#utility.yul\":526:527   */\n      0x00\n        /* \"#utility.yul\":519:531   */\n      revert\n        /* \"#utility.yul\":470:533   */\n    tag_60:\n        /* \"#utility.yul\":417:539   */\n      pop\n      jump\t// out\n        /* \"#utility.yul\":545:684   */\n    tag_46:\n        /* \"#utility.yul\":591:596   */\n      0x00\n        /* \"#utility.yul\":629:635   */\n      dup2\n        /* \"#utility.yul\":616:636   */\n      calldataload\n        /* \"#utility.yul\":607:636   */\n      swap1\n      pop\n        /* \"#utility.yul\":645:678   */\n      tag_62\n        /* \"#utility.yul\":672:677   */\n      dup2\n        /* \"#utility.yul\":645:678   */\n      tag_45\n      jump\t// in\n    tag_62:\n        /* \"#utility.yul\":545:684   */\n      swap3\n      swap2\n      pop\n      pop\n      jump\t// out\n        /* \"#utility.yul\":690:1019   */\n    tag_10:\n        /* \"#utility.yul\":749:755   */\n      0x00\n        /* \"#utility.yul\":798:800   */\n      0x20\n        /* \"#utility.yul\":786:795   */\n      dup3\n        /* \"#utility.yul\":777:784   */\n      dup5\n        /* \"#utility.yul\":773:796   */\n      sub\n        /* \"#utility.yul\":769:801   */\n      slt\n        /* \"#utility.yul\":766:885   */\n      iszero\n      tag_64\n      jumpi\n        /* \"#utility.yul\":804:883   */\n      tag_65\n      tag_42\n      jump\t// in\n    tag_65:\n        /* \"#utility.yul\":766:885   */\n    tag_64:\n        /* \"#utility.yul\":924:925   */\n      0x00\n        /* \"#utility.yul\":949:1002   */\n      tag_66\n        /* \"#utility.yul\":994:1001   */\n      dup5\n        /* \"#utility.yul\":985:991   */\n      dup3\n        /* \"#utility.yul\":974:983   */\n      dup6\n        /* \"#utility.yul\":970:992   */\n      add\n        /* \"#utility.yul\":949:1002   */\n      tag_46\n      jump\t// in\n    tag_66:\n        /* \"#utility.yul\":939:1002   */\n      swap2\n      pop\n        /* \"#utility.yul\":895:1012   */\n      pop\n        /* \"#utility.yul\":690:1019   */\n      swap3\n      swap2\n      pop\n      pop\n      jump\t// out\n        /* \"#utility.yul\":1025:1143   */\n    tag_47:\n        /* \"#utility.yul\":1112:1136   */\n      tag_68\n        /* \"#utility.yul\":1130:1135   */\n      dup2\n        /* \"#utility.yul\":1112:1136   */\n      tag_44\n      jump\t// in\n    tag_68:\n        /* \"#utility.yul\":1107:1110   */\n      dup3\n        /* \"#utility.yul\":1100:1137   */\n      mstore\n        /* \"#utility.yul\":1025:1143   */\n      pop\n      pop\n      jump\t// out\n        /* \"#utility.yul\":1149:1371   */\n    tag_18:\n        /* \"#utility.yul\":1242:1246   */\n      0x00\n        /* \"#utility.yul\":1280:1282   */\n      0x20\n        /* \"#utility.yul\":1269:1278   */\n      dup3\n        /* \"#utility.yul\":1265:1283   */\n      add\n        /* \"#utility.yul\":1257:1283   */\n      swap1\n      pop\n        /* \"#utility.yul\":1293:1364   */\n      tag_70\n        /* \"#utility.yul\":1361:1362   */\n      0x00\n        /* \"#utility.yul\":1350:1359   */\n      dup4\n        /* \"#utility.yul\":1346:1363   */\n      add\n        /* \"#utility.yul\":1337:1343   */\n      dup5\n        /* \"#utility.yul\":1293:1364   */\n      tag_47\n      jump\t// in\n    tag_70:\n        /* \"#utility.yul\":1149:1371   */\n      swap3\n      swap2\n      pop\n      pop\n      jump\t// out\n        /* \"#utility.yul\":1377:1557   */\n    tag_48:\n        /* \"#utility.yul\":1425:1502   */\n      0x4e487b7100000000000000000000000000000000000000000000000000000000\n        /* \"#utility.yul\":1422:1423   */\n      0x00\n        /* \"#utility.yul\":1415:1503   */\n      mstore\n        /* \"#utility.yul\":1522:1526   */\n      0x11\n        /* \"#utility.yul\":1519:1520   */\n      0x04\n        /* \"#utility.yul\":1512:1527   */\n      mstore\n        /* \"#utility.yul\":1546:1550   */\n      0x24\n        /* \"#utility.yul\":1543:1544   */\n      0x00\n        /* \"#utility.yul\":1536:1551   */\n      revert\n        /* \"#utility.yul\":1563:1754   */\n    tag_27:\n        /* \"#utility.yul\":1603:1606   */\n      0x00\n        /* \"#utility.yul\":1622:1642   */\n      tag_73\n        /* \"#utility.yul\":1640:1641   */\n      dup3\n        /* \"#utility.yul\":1622:1642   */\n      tag_44\n      jump\t// in\n    tag_73:\n        /* \"#utility.yul\":1617:1642   */\n      swap2\n      pop\n        /* \"#utility.yul\":1656:1676   */\n      tag_74\n        /* \"#utility.yul\":1674:1675   */\n      dup4\n        /* \"#utility.yul\":1656:1676   */\n      tag_44\n      jump\t// in\n    tag_74:\n        /* \"#utility.yul\":1651:1676   */\n      swap3\n      pop\n        /* \"#utility.yul\":1699:1700   */\n      dup3\n        /* \"#utility.yul\":1696:1697   */\n      dup3\n        /* \"#utility.yul\":1692:1701   */\n      add\n        /* \"#utility.yul\":1685:1701   */\n      swap1\n      pop\n        /* \"#utility.yul\":1720:1723   */\n      dup1\n        /* \"#utility.yul\":1717:1718   */\n      dup3\n        /* \"#utility.yul\":1714:1724   */\n      gt\n        /* \"#utility.yul\":1711:1747   */\n      iszero\n      tag_75\n      jumpi\n        /* \"#utility.yul\":1727:1745   */\n      tag_76\n      tag_48\n      jump\t// in\n    tag_76:\n        /* \"#utility.yul\":1711:1747   */\n    tag_75:\n        /* \"#utility.yul\":1563:1754   */\n      swap3\n      swap2\n      pop\n      pop\n      jump\t// out\n        /* \"#utility.yul\":1760:2170   */\n    tag_30:\n        /* \"#utility.yul\":1800:1807   */\n      0x00\n        /* \"#utility.yul\":1823:1843   */\n      tag_78\n        /* \"#utility.yul\":1841:1842   */\n      dup3\n        /* \"#utility.yul\":1823:1843   */\n      tag_44\n      jump\t// in\n    tag_78:\n        /* \"#utility.yul\":1818:1843   */\n      swap2\n      pop\n        /* \"#utility.yul\":1857:1877   */\n      tag_79\n        /* \"#utility.yul\":1875:1876   */\n      dup4\n        /* \"#utility.yul\":1857:1877   */\n      tag_44\n      jump\t// in\n    tag_79:\n        /* \"#utility.yul\":1852:1877   */\n      swap3\n      pop\n        /* \"#utility.yul\":1912:1913   */\n      dup3\n        /* \"#utility.yul\":1909:1910   */\n      dup3\n        /* \"#utility.yul\":1905:1914   */\n      mul\n        /* \"#utility.yul\":1934:1964   */\n      tag_80\n        /* \"#utility.yul\":1952:1963   */\n      dup2\n        /* \"#utility.yul\":1934:1964   */\n      tag_44\n      jump\t// in\n    tag_80:\n        /* \"#utility.yul\":1923:1964   */\n      swap2\n      pop\n        /* \"#utility.yul\":2113:2114   */\n      dup3\n        /* \"#utility.yul\":2104:2111   */\n      dup3\n        /* \"#utility.yul\":2100:2115   */\n      div\n        /* \"#utility.yul\":2097:2098   */\n      dup5\n        /* \"#utility.yul\":2094:2116   */\n      eq\n        /* \"#utility.yul\":2074:2075   */\n      dup4\n        /* \"#utility.yul\":2067:2076   */\n      iszero\n        /* \"#utility.yul\":2047:2130   */\n      or\n        /* \"#utility.yul\":2024:2163   */\n      tag_81\n      jumpi\n        /* \"#utility.yul\":2143:2161   */\n      tag_82\n      tag_48\n      jump\t// in\n    tag_82:\n        /* \"#utility.yul\":2024:2163   */\n    tag_81:\n        /* \"#utility.yul\":1808:2170   */\n      pop\n        /* \"#utility.yul\":1760:2170   */\n      swap3\n      swap2\n      pop\n      pop\n      jump\t// out\n        /* \"#utility.yul\":2176:2370   */\n    tag_34:\n        /* \"#utility.yul\":2216:2220   */\n      0x00\n        /* \"#utility.yul\":2236:2256   */\n      tag_84\n        /* \"#utility.yul\":2254:2255   */\n      dup3\n        /* \"#utility.yul\":2236:2256   */\n      tag_44\n      jump\t// in\n    tag_84:\n        /* \"#utility.yul\":2231:2256   */\n      swap2\n      pop\n        /* \"#utility.yul\":2270:2290   */\n      tag_85\n        /* \"#utility.yul\":2288:2289   */\n      dup4\n        /* \"#utility.yul\":2270:2290   */\n      tag_44\n      jump\t// in\n    tag_85:\n        /* \"#utility.yul\":2265:2290   */\n      swap3\n      pop\n        /* \"#utility.yul\":2314:2315   */\n      dup3\n        /* \"#utility.yul\":2311:2312   */\n      dup3\n        /* \"#utility.yul\":2307:2316   */\n      sub\n        /* \"#utility.yul\":2299:2316   */\n      swap1\n      pop\n        /* \"#utility.yul\":2338:2339   */\n      dup2\n        /* \"#utility.yul\":2332:2336   */\n      dup2\n        /* \"#utility.yul\":2329:2340   */\n      gt\n        /* \"#utility.yul\":2326:2363   */\n      iszero\n      tag_86\n      jumpi\n        /* \"#utility.yul\":2343:2361   */\n      tag_87\n      tag_48\n      jump\t// in\n    tag_87:\n        /* \"#utility.yul\":2326:2363   */\n    tag_86:\n        /* \"#utility.yul\":2176:2370   */\n      swap3\n      swap2\n      pop\n      pop\n      jump\t// out\n        /* \"#utility.yul\":2376:2545   */\n    tag_49:\n        /* \"#utility.yul\":2460:2471   */\n      0x00\n        /* \"#utility.yul\":2494:2500   */\n      dup3\n        /* \"#utility.yul\":2489:2492   */\n      dup3\n        /* \"#utility.yul\":2482:2501   */\n      mstore\n        /* \"#utility.yul\":2534:2538   */\n      0x20\n        /* \"#utility.yul\":2529:2532   */\n      dup3\n        /* \"#utility.yul\":2525:2539   */\n      add\n        /* \"#utility.yul\":2510:2539   */\n      swap1\n      pop\n        /* \"#utility.yul\":2376:2545   */\n      swap3\n      swap2\n      pop\n      pop\n      jump\t// out\n        /* \"#utility.yul\":2551:2722   */\n    tag_50:\n        /* \"#utility.yul\":2691:2714   */\n      0x63616e6e6f7420646976696465206279207a65726f0000000000000000000000\n        /* \"#utility.yul\":2687:2688   */\n      0x00\n        /* \"#utility.yul\":2679:2685   */\n      dup3\n        /* \"#utility.yul\":2675:2689   */\n      add\n        /* \"#utility.yul\":2668:2715   */\n      mstore\n        /* \"#utility.yul\":2551:2722   */\n      pop\n      jump\t// out\n        /* \"#utility.yul\":2728:3094   */\n    tag_51:\n        /* \"#utility.yul\":2870:2873   */\n      0x00\n        /* \"#utility.yul\":2891:2958   */\n      tag_91\n        /* \"#utility.yul\":2955:2957   */\n      0x15\n        /* \"#utility.yul\":2950:2953   */\n      dup4\n        /* \"#utility.yul\":2891:2958   */\n      tag_49\n      jump\t// in\n    tag_91:\n        /* \"#utility.yul\":2884:2958   */\n      swap2\n      pop\n        /* \"#utility.yul\":2967:3060   */\n      tag_92\n        /* \"#utility.yul\":3056:3059   */\n      dup3\n        /* \"#utility.yul\":2967:3060   */\n      tag_50\n      jump\t// in\n    tag_92:\n        /* \"#utility.yul\":3085:3087   */\n      0x20\n        /* \"#utility.yul\":3080:3083   */\n      dup3\n        /* \"#utility.yul\":3076:3088   */\n      add\n        /* \"#utility.yul\":3069:3088   */\n      swap1\n      pop\n        /* \"#utility.yul\":2728:3094   */\n      swap2\n      swap1\n      pop\n      jump\t// out\n        /* \"#utility.yul\":3100:3519   */\n    tag_38:\n        /* \"#utility.yul\":3266:3270   */\n      0x00\n        /* \"#utility.yul\":3304:3306   */\n      0x20\n        /* \"#utility.yul\":3293:3302   */\n      dup3\n        /* \"#utility.yul\":3289:3307   */\n      add\n        /* \"#utility.yul\":3281:3307   */\n      swap1\n      pop\n        /* \"#utility.yul\":3353:3362   */\n      dup2\n        /* \"#utility.yul\":3347:3351   */\n      dup2\n        /* \"#utility.yul\":3343:3363   */\n      sub\n        /* \"#utility.yul\":3339:3340   */\n      0x00\n        /* \"#utility.yul\":3328:3337   */\n      dup4\n        /* \"#utility.yul\":3324:3341   */\n      add\n        /* \"#utility.yul\":3317:3364   */\n      mstore\n        /* \"#utility.yul\":3381:3512   */\n      tag_94\n        /* \"#utility.yul\":3507:3511   */\n      dup2\n        /* \"#utility.yul\":3381:3512   */\n      tag_51\n      jump\t// in\n    tag_94:\n        /* \"#utility.yul\":3373:3512   */\n      swap1\n      pop\n        /* \"#utility.yul\":3100:3519   */\n      swap2\n      swap1\n      pop\n      jump\t// out\n        /* \"#utility.yul\":3525:3705   */\n    tag_52:\n        /* \"#utility.yul\":3573:3650   */\n      0x4e487b7100000000000000000000000000000000000000000000000000000000\n        /* \"#utility.yul\":3570:3571   */\n      0x00\n        /* \"#utility.yul\":3563:3651   */\n      mstore\n        /* \"#utility.yul\":3670:3674   */\n      0x12\n        /* \"#utility.yul\":3667:3668   */\n      0x04\n        /* \"#utility.yul\":3660:3675   */\n      mstore\n        /* \"#utility.yul\":3694:3698   */\n      0x24\n        /* \"#utility.yul\":3691:3692   */\n      0x00\n        /* \"#utility.yul\":3684:3699   */\n      revert\n        /* \"#utility.yul\":3711:3896   */\n    tag_40:\n        /* \"#utility.yul\":3751:3752   */\n      0x00\n        /* \"#utility.yul\":3768:3788   */\n      tag_97\n        /* \"#utility.yul\":3786:3787   */\n      dup3\n        /* \"#utility.yul\":3768:3788   */\n      tag_44\n      jump\t// in\n    tag_97:\n        /* \"#utility.yul\":3763:3788   */\n      swap2\n      pop\n        /* \"#utility.yul\":3802:3822   */\n      tag_98\n        /* \"#utility.yul\":3820:3821   */\n      dup4\n        /* \"#utility.yul\":3802:3822   */\n      tag_44\n      jump\t// in\n    tag_98:\n        /* \"#utility.yul\":3797:3822   */\n      swap3\n      pop\n        /* \"#utility.yul\":3841:3842   */\n      dup3\n        /* \"#utility.yul\":3831:3866   */\n      tag_99\n      jumpi\n        /* \"#utility.yul\":3846:3864   */\n      tag_100\n      tag_52\n      jump\t// in\n    tag_100:\n        /* \"#utility.yul\":3831:3866   */\n    tag_99:\n        /* \"#utility.yul\":3888:3889   */\n      dup3\n        /* \"#utility.yul\":3885:3886   */\n      dup3\n        /* \"#utility.yul\":3881:3890   */\n      div\n        /* \"#utility.yul\":3876:3890   */\n      swap1\n      pop\n        /* \"#utility.yul\":3711:3896   */\n      swap3\n      swap2\n      pop\n      pop\n      jump\t// out\n\n    auxdata: 0xa2646970667358221220287c2cae763569283f781ee108fee0278539f8d1773a0dc7d07489d4e8f9229b64736f6c634300081e0033\n}\n",
				"bytecode": {
					"linkReferences": {},
					"object": "6080604052348015600e575f5ffd5b506040516104a03803806104a08339818101604052810190602e9190606b565b805f81905550506091565b5f5ffd5b5f819050919050565b604d81603d565b81146056575f5ffd5b50565b5f815190506065816046565b92915050565b5f60208284031215607d57607c6039565b5b5f6088848285016059565b91505092915050565b6104028061009e5f395ff3fe608060405234801561000f575f5ffd5b5060043610610055575f3560e01c80631003e2d214610059578063131e2f1814610075578063209652551461009157806327ee58a6146100af578063eba31cc4146100cb575b5f5ffd5b610073600480360381019061006e91906101d0565b6100e7565b005b61008f600480360381019061008a91906101d0565b610101565b005b61009961011b565b6040516100a6919061020a565b60405180910390f35b6100c960048036038101906100c491906101d0565b610123565b005b6100e560048036038101906100e091906101d0565b61013d565b005b805f5f8282546100f79190610250565b9250508190555050565b805f5f8282546101119190610283565b9250508190555050565b5f5f54905090565b805f5f82825461013391906102c4565b9250508190555050565b5f810361017f576040517f08c379a000000000000000000000000000000000000000000000000000000000815260040161017690610351565b60405180910390fd5b805f5f82825461018f919061039c565b9250508190555050565b5f5ffd5b5f819050919050565b6101af8161019d565b81146101b9575f5ffd5b50565b5f813590506101ca816101a6565b92915050565b5f602082840312156101e5576101e4610199565b5b5f6101f2848285016101bc565b91505092915050565b6102048161019d565b82525050565b5f60208201905061021d5f8301846101fb565b92915050565b7f4e487b71000000000000000000000000000000000000000000000000000000005f52601160045260245ffd5b5f61025a8261019d565b91506102658361019d565b925082820190508082111561027d5761027c610223565b5b92915050565b5f61028d8261019d565b91506102988361019d565b92508282026102a68161019d565b915082820484148315176102bd576102bc610223565b5b5092915050565b5f6102ce8261019d565b91506102d98361019d565b92508282039050818111156102f1576102f0610223565b5b92915050565b5f82825260208201905092915050565b7f63616e6e6f7420646976696465206279207a65726f00000000000000000000005f82015250565b5f61033b6015836102f7565b915061034682610307565b602082019050919050565b5f6020820190508181035f8301526103688161032f565b9050919050565b7f4e487b71000000000000000000000000000000000000000000000000000000005f52601260045260245ffd5b5f6103a68261019d565b91506103b18361019d565b9250826103c1576103c061036f565b5b82820490509291505056fea2646970667358221220287c2cae763569283f781ee108fee0278539f8d1773a0dc7d07489d4e8f9229b64736f6c634300081e0033",
					"opcodes": "PUSH1 0x80 PUSH1 0x40 MSTORE CALLVALUE DUP1 ISZERO PUSH1 0xE JUMPI PUSH0 PUSH0 REVERT JUMPDEST POP PUSH1 0x40 MLOAD PUSH2 0x4A0 CODESIZE SUB DUP1 PUSH2 0x4A0 DUP4 CODECOPY DUP2 DUP2 ADD PUSH1 0x40 MSTORE DUP2 ADD SWAP1 PUSH1 0x2E SWAP2 SWAP1 PUSH1 0x6B JUMP JUMPDEST DUP1 PUSH0 DUP2 SWAP1 SSTORE POP POP PUSH1 0x91 JUMP JUMPDEST PUSH0 PUSH0 REVERT JUMPDEST PUSH0 DUP2 SWAP1 POP SWAP2 SWAP1 POP JUMP JUMPDEST PUSH1 0x4D DUP2 PUSH1 0x3D JUMP JUMPDEST DUP2 EQ PUSH1 0x56 JUMPI PUSH0 PUSH0 REVERT JUMPDEST POP JUMP JUMPDEST PUSH0 DUP2 MLOAD SWAP1 POP PUSH1 0x65 DUP2 PUSH1 0x46 JUMP JUMPDEST SWAP3 SWAP2 POP POP JUMP JUMPDEST PUSH0 PUSH1 0x20 DUP3 DUP5 SUB SLT ISZERO PUSH1 0x7D JUMPI PUSH1 0x7C PUSH1 0x39 JUMP JUMPDEST JUMPDEST PUSH0 PUSH1 0x88 DUP5 DUP3 DUP6 ADD PUSH1 0x59 JUMP JUMPDEST SWAP2 POP POP SWAP3 SWAP2 POP POP JUMP JUMPDEST PUSH2 0x402 DUP1 PUSH2 0x9E PUSH0 CODECOPY PUSH0 RETURN INVALID PUSH1 0x80 PUSH1 0x40 MSTORE CALLVALUE DUP1 ISZERO PUSH2 0xF JUMPI PUSH0 PUSH0 REVERT JUMPDEST POP PUSH1 0x4 CALLDATASIZE LT PUSH2 0x55 JUMPI PUSH0 CALLDATALOAD PUSH1 0xE0 SHR DUP1 PUSH4 0x1003E2D2 EQ PUSH2 0x59 JUMPI DUP1 PUSH4 0x131E2F18 EQ PUSH2 0x75 JUMPI DUP1 PUSH4 0x20965255 EQ PUSH2 0x91 JUMPI DUP1 PUSH4 0x27EE58A6 EQ PUSH2 0xAF JUMPI DUP1 PUSH4 0xEBA31CC4 EQ PUSH2 0xCB JUMPI JUMPDEST PUSH0 PUSH0 REVERT JUMPDEST PUSH2 0x73 PUSH1 0x4 DUP1 CALLDATASIZE SUB DUP2 ADD SWAP1 PUSH2 0x6E SWAP2 SWAP1 PUSH2 0x1D0 JUMP JUMPDEST PUSH2 0xE7 JUMP JUMPDEST STOP JUMPDEST PUSH2 0x8F PUSH1 0x4 DUP1 CALLDATASIZE SUB DUP2 ADD SWAP1 PUSH2 0x8A SWAP2 SWAP1 PUSH2 0x1D0 JUMP JUMPDEST PUSH2 0x101 JUMP JUMPDEST STOP JUMPDEST PUSH2 0x99 PUSH2 0x11B JUMP JUMPDEST PUSH1 0x40 MLOAD PUSH2 0xA6 SWAP2 SWAP1 PUSH2 0x20A JUMP JUMPDEST PUSH1 0x40 MLOAD DUP1 SWAP2 SUB SWAP1 RETURN JUMPDEST PUSH2 0xC9 PUSH1 0x4 DUP1 CALLDATASIZE SUB DUP2 ADD SWAP1 PUSH2 0xC4 SWAP2 SWAP1 PUSH2 0x1D0 JUMP JUMPDEST PUSH2 0x123 JUMP JUMPDEST STOP JUMPDEST PUSH2 0xE5 PUSH1 0x4 DUP1 CALLDATASIZE SUB DUP2 ADD SWAP1 PUSH2 0xE0 SWAP2 SWAP1 PUSH2 0x1D0 JUMP JUMPDEST PUSH2 0x13D JUMP JUMPDEST STOP JUMPDEST DUP1 PUSH0 PUSH0 DUP3 DUP3 SLOAD PUSH2 0xF7 SWAP2 SWAP1 PUSH2 0x250 JUMP JUMPDEST SWAP3 POP POP DUP2 SWAP1 SSTORE POP POP JUMP JUMPDEST DUP1 PUSH0 PUSH0 DUP3 DUP3 SLOAD PUSH2 0x111 SWAP2 SWAP1 PUSH2 0x283 JUMP JUMPDEST SWAP3 POP POP DUP2 SWAP1 SSTORE POP POP JUMP JUMPDEST PUSH0 PUSH0 SLOAD SWAP1 POP SWAP1 JUMP JUMPDEST DUP1 PUSH0 PUSH0 DUP3 DUP3 SLOAD PUSH2 0x133 SWAP2 SWAP1 PUSH2 0x2C4 JUMP JUMPDEST SWAP3 POP POP DUP2 SWAP1 SSTORE POP POP JUMP JUMPDEST PUSH0 DUP2 SUB PUSH2 0x17F JUMPI PUSH1 0x40 MLOAD PUSH32 0x8C379A000000000000000000000000000000000000000000000000000000000 DUP2 MSTORE PUSH1 0x4 ADD PUSH2 0x176 SWAP1 PUSH2 0x351 JUMP JUMPDEST PUSH1 0x40 MLOAD DUP1 SWAP2 SUB SWAP1 REVERT JUMPDEST DUP1 PUSH0 PUSH0 DUP3 DUP3 SLOAD PUSH2 0x18F SWAP2 SWAP1 PUSH2 0x39C JUMP JUMPDEST SWAP3 POP POP DUP2 SWAP1 SSTORE POP POP JUMP JUMPDEST PUSH0 PUSH0 REVERT JUMPDEST PUSH0 DUP2 SWAP1 POP SWAP2 SWAP1 POP JUMP JUMPDEST PUSH2 0x1AF DUP2 PUSH2 0x19D JUMP JUMPDEST DUP2 EQ PUSH2 0x1B9 JUMPI PUSH0 PUSH0 REVERT JUMPDEST POP JUMP JUMPDEST PUSH0 DUP2 CALLDATALOAD SWAP1 POP PUSH2 0x1CA DUP2 PUSH2 0x1A6 JUMP JUMPDEST SWAP3 SWAP2 POP POP JUMP JUMPDEST PUSH0 PUSH1 0x20 DUP3 DUP5 SUB SLT ISZERO PUSH2 0x1E5 JUMPI PUSH2 0x1E4 PUSH2 0x199 JUMP JUMPDEST JUMPDEST PUSH0 PUSH2 0x1F2 DUP5 DUP3 DUP6 ADD PUSH2 0x1BC JUMP JUMPDEST SWAP2 POP POP SWAP3 SWAP2 POP POP JUMP JUMPDEST PUSH2 0x204 DUP2 PUSH2 0x19D JUMP JUMPDEST DUP3 MSTORE POP POP JUMP JUMPDEST PUSH0 PUSH1 0x20 DUP3 ADD SWAP1 POP PUSH2 0x21D PUSH0 DUP4 ADD DUP5 PUSH2 0x1FB JUMP JUMPDEST SWAP3 SWAP2 POP POP JUMP JUMPDEST PUSH32 0x4E487B7100000000000000000000000000000000000000000000000000000000 PUSH0 MSTORE PUSH1 0x11 PUSH1 0x4 MSTORE PUSH1 0x24 PUSH0 REVERT JUMPDEST PUSH0 PUSH2 0x25A DUP3 PUSH2 0x19D JUMP JUMPDEST SWAP2 POP PUSH2 0x265 DUP4 PUSH2 0x19D JUMP JUMPDEST SWAP3 POP DUP3 DUP3 ADD SWAP1 POP DUP1 DUP3 GT ISZERO PUSH2 0x27D JUMPI PUSH2 0x27C PUSH2 0x223 JUMP JUMPDEST JUMPDEST SWAP3 SWAP2 POP POP JUMP JUMPDEST PUSH0 PUSH2 0x28D DUP3 PUSH2 0x19D JUMP JUMPDEST SWAP2 POP PUSH2 0x298 DUP4 PUSH2 0x19D JUMP JUMPDEST SWAP3 POP DUP3 DUP3 MUL PUSH2 0x2A6 DUP2 PUSH2 0x19D JUMP JUMPDEST SWAP2 POP DUP3 DUP3 DIV DUP5 EQ DUP4 ISZERO OR PUSH2 0x2BD JUMPI PUSH2 0x2BC PUSH2 0x223 JUMP JUMPDEST JUMPDEST POP SWAP3 SWAP2 POP POP JUMP JUMPDEST PUSH0 PUSH2 0x2CE DUP3 PUSH2 0x19D JUMP JUMPDEST SWAP2 POP PUSH2 0x2D9 DUP4 PUSH2 0x19D JUMP JUMPDEST SWAP3 POP DUP3 DUP3 SUB SWAP1 POP DUP2 DUP2 GT ISZERO PUSH2 0x2F1 JUMPI PUSH2 0x2F0 PUSH2 0x223 JUMP JUMPDEST JUMPDEST SWAP3 SWAP2 POP POP JUMP JUMPDEST PUSH0 DUP3 DUP3 MSTORE PUSH1 0x20 DUP3 ADD SWAP1 POP SWAP3 SWAP2 POP POP JUMP JUMPDEST PUSH32 0x63616E6E6F7420646976696465206279207A65726F0000000000000000000000 PUSH0 DUP3 ADD MSTORE POP JUMP JUMPDEST PUSH0 PUSH2 0x33B PUSH1 0x15 DUP4 PUSH2 0x2F7 JUMP JUMPDEST SWAP2 POP PUSH2 0x346 DUP3 PUSH2 0x307 JUMP JUMPDEST PUSH1 0x20 DUP3 ADD SWAP1 POP SWAP2 SWAP1 POP JUMP JUMPDEST PUSH0 PUSH1 0x20 DUP3 ADD SWAP1 POP DUP2 DUP2 SUB PUSH0 DUP4 ADD MSTORE PUSH2 0x368 DUP2 PUSH2 0x32F JUMP JUMPDEST SWAP1 POP SWAP2 SWAP1 POP JUMP JUMPDEST PUSH32 0x4E487B7100000000000000000000000000000000000000000000000000000000 PUSH0 MSTORE PUSH1 0x12 PUSH1 0x4 MSTORE PUSH1 0x24 PUSH0 REVERT JUMPDEST PUSH0 PUSH2 0x3A6 DUP3 PUSH2 0x19D JUMP JUMPDEST SWAP2 POP PUSH2 0x3B1 DUP4 PUSH2 0x19D JUMP JUMPDEST SWAP3 POP DUP3 PUSH2 0x3C1 JUMPI PUSH2 0x3C0 PUSH2 0x36F JUMP JUMPDEST JUMPDEST DUP3 DUP3 DIV SWAP1 POP SWAP3 SWAP2 POP POP JUMP INVALID LOG2 PUSH5 0x6970667358 0x22 SLT KECCAK256 0x28 PUSH29 0x2CAE763569283F781EE108FEE0278539F8D1773A0DC7D07489D4E8F922 SWAP12 PUSH5 0x736F6C6343 STOP ADDMOD 0x1E STOP CALLER "
				},
				"gasEstimates": {
					"creation": {
						"codeDepositCost": "205200",
						"executionCost": "infinite",
						"totalCost": "infinite"
					},
					"external": {
						"add(uint256)": "infinite",
						"div(uint256)": "infinite",
						"getValue()": "2453",
						"mul(uint256)": "infinite",
						"sub(uint256)": "infinite"
					}
				},
				"methodIdentifiers": {
					"add(uint256)": "1003e2d2",
					"div(uint256)": "eba31cc4",
					"getValue()": "20965255",
					"mul(uint256)": "131e2f18",
					"sub(uint256)": "27ee58a6"
				}
			},
			"storageLayout": {
				"storage": [
					{
						"astId": 3,
						"contract": "contracts/Learning.sol:calculator",
						"label": "currentvalue",
						"offset": 0,
						"slot": "0",
						"type": "t_uint256"
					}
				],
				"types": {
					"t_uint256": {
						"encoding": "inplace",
						"label": "uint256",
						"numberOfBytes": "32"
					}
				}
			},
			"userdoc": {
				"kind": "user",
				"methods": {},
				"version": 1
			}
		}
	}
}