{
	"contracts/Willcontract.sol": {
		"Will": {
			"abi": [
				{
					"inputs": [
						{
							"internalType": "address",
							"name": "_recipient",
							"type": "address"
						}
					],
					"stateMutability": "payable",
					"type": "constructor"
				},
				{
					"anonymous": false,
					"inputs": [
						{
							"indexed": true,
							"internalType": "address",
							"name": "recipient",
							"type": "address"
						},
						{
							"indexed": false,
							"internalType": "uint256",
							"name": "amount",
							"type": "uint256"
						}
					],
					"name": "Drained",
					"type": "event"
				},
				{
					"anonymous": false,
					"inputs": [
						{
							"indexed": true,
							"internalType": "address",
							"name": "owner",
							"type": "address"
						},
						{
							"indexed": false,
							"internalType": "uint256",
							"name": "timestamp",
							"type": "uint256"
						}
					],
					"name": "Ping",
					"type": "event"
				},
				{
					"anonymous": false,
					"inputs": [
						{
							"indexed": true,
							"internalType": "address",
							"name": "from",
							"type": "address"
						},
						{
							"indexed": false,
							"internalType": "uint256",
							"name": "amount",
							"type": "uint256"
						}
					],
					"name": "Recieved",
					"type": "event"
				},
				{
					"anonymous": false,
					"inputs": [
						{
							"indexed": true,
							"internalType": "address",
							"name": "oldreciepent",
							"type": "address"
						},
						{
							"indexed": true,
							"internalType": "address",
							"name": "newrecipient",
							"type": "address"
						}
					],
					"name": "RecipientChanged",
					"type": "event"
				},
				{
					"stateMutability": "payable",
					"type": "fallback"
				},
				{
					"inputs": [],
					"name": "Drain",
					"outputs": [],
					"stateMutability": "nonpayable",
					"type": "function"
				},
				{
					"inputs": [],
					"name": "INACTIVITY_PERIOD",
					"outputs": [
						{
							"internalType": "uint256",
							"name": "",
							"type": "uint256"
						}
					],
					"stateMutability": "view",
					"type": "function"
				},
				{
					"inputs": [],
					"name": "canRecipientDrain",
					"outputs": [
						{
							"internalType": "bool",
							"name": "",
							"type": "bool"
						}
					],
					"stateMutability": "view",
					"type": "function"
				},
				{
					"inputs": [
						{
							"internalType": "address",
							"name": "_newRecipient",
							"type": "address"
						}
					],
					"name": "changeRecipeint",
					"outputs": [],
					"stateMutability": "nonpayable",
					"type": "function"
				},
				{
					"inputs": [],
					"name": "lastPing",
					"outputs": [
						{
							"internalType": "uint256",
							"name": "",
							"type": "uint256"
						}
					],
					"stateMutability": "view",
					"type": "function"
				},
				{
					"inputs": [],
					"name": "owner",
					"outputs": [
						{
							"internalType": "address",
							"name": "",
							"type": "address"
						}
					],
					"stateMutability": "view",
					"type": "function"
				},
				{
					"inputs": [],
					"name": "ping",
					"outputs": [],
					"stateMutability": "nonpayable",
					"type": "function"
				},
				{
					"inputs": [],
					"name": "recipient",
					"outputs": [
						{
							"internalType": "address",
							"name": "",
							"type": "address"
						}
					],
					"stateMutability": "view",
					"type": "function"
				},
				{
					"inputs": [],
					"name": "secondsUntilDrain",
					"outputs": [
						{
							"internalType": "uint256",
							"name": "",
							"type": "uint256"
						}
					],
					"stateMutability": "view",
					"type": "function"
				},
				{
					"stateMutability": "payable",
					"type": "receive"
				}
			],
			"devdoc": {
				"kind": "dev",
				"methods": {},
				"version": 1
			},
			"evm": {
				"assembly": "    /* \"contracts/Willcontract.sol\":58:2413  contract Will{... */\n  mstore(0x40, 0x80)\n    /* \"contracts/Willcontract.sol\":750:969  constructor(address _recipient)payable{... */\n  mload(0x40)\n  sub(codesize, bytecodeSize)\n  dup1\n  bytecodeSize\n  dup4\n  codecopy\n  dup2\n  dup2\n  add\n  0x40\n  mstore\n  dup2\n  add\n  swap1\n  tag_1\n  swap2\n  swap1\n  tag_2\n  jump\t// in\ntag_1:\n    /* \"contracts/Willcontract.sol\":804:814  msg.sender */\n  caller\n    /* \"contracts/Willcontract.sol\":798:803  owner */\n  0x00\n  0x00\n    /* \"contracts/Willcontract.sol\":798:814  owner=msg.sender */\n  0x0100\n  exp\n  dup2\n  sload\n  dup2\n  0xffffffffffffffffffffffffffffffffffffffff\n  mul\n  not\n  and\n  swap1\n  dup4\n  0xffffffffffffffffffffffffffffffffffffffff\n  and\n  mul\n  or\n  swap1\n  sstore\n  pop\n    /* \"contracts/Willcontract.sol\":834:844  _recipient */\n  dup1\n    /* \"contracts/Willcontract.sol\":824:833  recipient */\n  0x01\n  0x00\n    /* \"contracts/Willcontract.sol\":824:844  recipient=_recipient */\n  0x0100\n  exp\n  dup2\n  sload\n  dup2\n  0xffffffffffffffffffffffffffffffffffffffff\n  mul\n  not\n  and\n  swap1\n  dup4\n  0xffffffffffffffffffffffffffffffffffffffff\n  and\n  mul\n  or\n  swap1\n  sstore\n  pop\n    /* \"contracts/Willcontract.sol\":863:878  block.timestamp */\n  timestamp\n    /* \"contracts/Willcontract.sol\":854:862  lastPing */\n  0x02\n    /* \"contracts/Willcontract.sol\":854:878  lastPing=block.timestamp */\n  dup2\n  swap1\n  sstore\n  pop\n    /* \"contracts/Willcontract.sol\":901:902  0 */\n  0x00\n    /* \"contracts/Willcontract.sol\":891:900  msg.value */\n  callvalue\n    /* \"contracts/Willcontract.sol\":891:902  msg.value>0 */\n  gt\n    /* \"contracts/Willcontract.sol\":888:963  if(msg.value>0){... */\n  iszero\n  tag_5\n  jumpi\n    /* \"contracts/Willcontract.sol\":931:941  msg.sender */\n  caller\n    /* \"contracts/Willcontract.sol\":922:952  Recieved(msg.sender,msg.value) */\n  0xffffffffffffffffffffffffffffffffffffffff\n  and\n  0xe03f2fbffd55aceaa08b8e27b348ae6b7607e8a520dfe6a92b053c2ce0ac850a\n    /* \"contracts/Willcontract.sol\":942:951  msg.value */\n  callvalue\n    /* \"contracts/Willcontract.sol\":922:952  Recieved(msg.sender,msg.value) */\n  mload(0x40)\n  tag_6\n  swap2\n  swap1\n  tag_7\n  jump\t// in\ntag_6:\n  mload(0x40)\n  dup1\n  swap2\n  sub\n  swap1\n  log2\n    /* \"contracts/Willcontract.sol\":888:963  if(msg.value>0){... */\ntag_5:\n    /* \"contracts/Willcontract.sol\":750:969  constructor(address _recipient)payable{... */\n  pop\n    /* \"contracts/Willcontract.sol\":58:2413  contract Will{... */\n  jump(tag_8)\n    /* \"#utility.yul\":88:205   */\ntag_10:\n    /* \"#utility.yul\":197:198   */\n  0x00\n    /* \"#utility.yul\":194:195   */\n  0x00\n    /* \"#utility.yul\":187:199   */\n  revert\n    /* \"#utility.yul\":334:460   */\ntag_12:\n    /* \"#utility.yul\":371:378   */\n  0x00\n    /* \"#utility.yul\":411:453   */\n  0xffffffffffffffffffffffffffffffffffffffff\n    /* \"#utility.yul\":404:409   */\n  dup3\n    /* \"#utility.yul\":400:454   */\n  and\n    /* \"#utility.yul\":389:454   */\n  swap1\n  pop\n    /* \"#utility.yul\":334:460   */\n  swap2\n  swap1\n  pop\n  jump\t// out\n    /* \"#utility.yul\":466:562   */\ntag_13:\n    /* \"#utility.yul\":503:510   */\n  0x00\n    /* \"#utility.yul\":532:556   */\n  tag_24\n    /* \"#utility.yul\":550:555   */\n  dup3\n    /* \"#utility.yul\":532:556   */\n  tag_12\n  jump\t// in\ntag_24:\n    /* \"#utility.yul\":521:556   */\n  swap1\n  pop\n    /* \"#utility.yul\":466:562   */\n  swap2\n  swap1\n  pop\n  jump\t// out\n    /* \"#utility.yul\":568:690   */\ntag_14:\n    /* \"#utility.yul\":641:665   */\n  tag_26\n    /* \"#utility.yul\":659:664   */\n  dup2\n    /* \"#utility.yul\":641:665   */\n  tag_13\n  jump\t// in\ntag_26:\n    /* \"#utility.yul\":634:639   */\n  dup2\n    /* \"#utility.yul\":631:666   */\n  eq\n    /* \"#utility.yul\":621:684   */\n  tag_27\n  jumpi\n    /* \"#utility.yul\":680:681   */\n  0x00\n    /* \"#utility.yul\":677:678   */\n  0x00\n    /* \"#utility.yul\":670:682   */\n  revert\n    /* \"#utility.yul\":621:684   */\ntag_27:\n    /* \"#utility.yul\":568:690   */\n  pop\n  jump\t// out\n    /* \"#utility.yul\":696:839   */\ntag_15:\n    /* \"#utility.yul\":753:758   */\n  0x00\n    /* \"#utility.yul\":784:790   */\n  dup2\n    /* \"#utility.yul\":778:791   */\n  mload\n    /* \"#utility.yul\":769:791   */\n  swap1\n  pop\n    /* \"#utility.yul\":800:833   */\n  tag_29\n    /* \"#utility.yul\":827:832   */\n  dup2\n    /* \"#utility.yul\":800:833   */\n  tag_14\n  jump\t// in\ntag_29:\n    /* \"#utility.yul\":696:839   */\n  swap3\n  swap2\n  pop\n  pop\n  jump\t// out\n    /* \"#utility.yul\":845:1196   */\ntag_2:\n    /* \"#utility.yul\":915:921   */\n  0x00\n    /* \"#utility.yul\":964:966   */\n  0x20\n    /* \"#utility.yul\":952:961   */\n  dup3\n    /* \"#utility.yul\":943:950   */\n  dup5\n    /* \"#utility.yul\":939:962   */\n  sub\n    /* \"#utility.yul\":935:967   */\n  slt\n    /* \"#utility.yul\":932:1051   */\n  iszero\n  tag_31\n  jumpi\n    /* \"#utility.yul\":970:1049   */\n  tag_32\n  tag_10\n  jump\t// in\ntag_32:\n    /* \"#utility.yul\":932:1051   */\ntag_31:\n    /* \"#utility.yul\":1090:1091   */\n  0x00\n    /* \"#utility.yul\":1115:1179   */\n  tag_33\n    /* \"#utility.yul\":1171:1178   */\n  dup5\n    /* \"#utility.yul\":1162:1168   */\n  dup3\n    /* \"#utility.yul\":1151:1160   */\n  dup6\n    /* \"#utility.yul\":1147:1169   */\n  add\n    /* \"#utility.yul\":1115:1179   */\n  tag_15\n  jump\t// in\ntag_33:\n    /* \"#utility.yul\":1105:1179   */\n  swap2\n  pop\n    /* \"#utility.yul\":1061:1189   */\n  pop\n    /* \"#utility.yul\":845:1196   */\n  swap3\n  swap2\n  pop\n  pop\n  jump\t// out\n    /* \"#utility.yul\":1202:1279   */\ntag_16:\n    /* \"#utility.yul\":1239:1246   */\n  0x00\n    /* \"#utility.yul\":1268:1273   */\n  dup2\n    /* \"#utility.yul\":1257:1273   */\n  swap1\n  pop\n    /* \"#utility.yul\":1202:1279   */\n  swap2\n  swap1\n  pop\n  jump\t// out\n    /* \"#utility.yul\":1285:1403   */\ntag_17:\n    /* \"#utility.yul\":1372:1396   */\n  tag_36\n    /* \"#utility.yul\":1390:1395   */\n  dup2\n    /* \"#utility.yul\":1372:1396   */\n  tag_16\n  jump\t// in\ntag_36:\n    /* \"#utility.yul\":1367:1370   */\n  dup3\n    /* \"#utility.yul\":1360:1397   */\n  mstore\n    /* \"#utility.yul\":1285:1403   */\n  pop\n  pop\n  jump\t// out\n    /* \"#utility.yul\":1409:1631   */\ntag_7:\n    /* \"#utility.yul\":1502:1506   */\n  0x00\n    /* \"#utility.yul\":1540:1542   */\n  0x20\n    /* \"#utility.yul\":1529:1538   */\n  dup3\n    /* \"#utility.yul\":1525:1543   */\n  add\n    /* \"#utility.yul\":1517:1543   */\n  swap1\n  pop\n    /* \"#utility.yul\":1553:1624   */\n  tag_38\n    /* \"#utility.yul\":1621:1622   */\n  0x00\n    /* \"#utility.yul\":1610:1619   */\n  dup4\n    /* \"#utility.yul\":1606:1623   */\n  add\n    /* \"#utility.yul\":1597:1603   */\n  dup5\n    /* \"#utility.yul\":1553:1624   */\n  tag_17\n  jump\t// in\ntag_38:\n    /* \"#utility.yul\":1409:1631   */\n  swap3\n  swap2\n  pop\n  pop\n  jump\t// out\n    /* \"contracts/Willcontract.sol\":58:2413  contract Will{... */\ntag_8:\n  dataSize(sub_0)\n  dup1\n  dataOffset(sub_0)\n  0x00\n  codecopy\n  0x00\n  return\nstop\n\nsub_0: assembly {\n        /* \"contracts/Willcontract.sol\":58:2413  contract Will{... */\n      mstore(0x40, 0x80)\n      jumpi(tag_1, lt(calldatasize, 0x04))\n      shr(0xe0, calldataload(0x00))\n      dup1\n      0x66d003ac\n      gt\n      tag_12\n      jumpi\n      dup1\n      0x66d003ac\n      eq\n      tag_7\n      jumpi\n      dup1\n      0x8da5cb5b\n      eq\n      tag_8\n      jumpi\n      dup1\n      0xb18ada67\n      eq\n      tag_9\n      jumpi\n      dup1\n      0xd5b6240e\n      eq\n      tag_10\n      jumpi\n      dup1\n      0xd67a073f\n      eq\n      tag_11\n      jumpi\n      jump(tag_2)\n    tag_12:\n      dup1\n      0x1f0255d2\n      eq\n      tag_3\n      jumpi\n      dup1\n      0x2760c57e\n      eq\n      tag_4\n      jumpi\n      dup1\n      0x5424ecbc\n      eq\n      tag_5\n      jumpi\n      dup1\n      0x5c36b186\n      eq\n      tag_6\n      jumpi\n      jump(tag_2)\n    tag_1:\n      jumpi(tag_2, calldatasize)\n        /* \"contracts/Willcontract.sol\":1026:1036  msg.sender */\n      caller\n        /* \"contracts/Willcontract.sol\":1017:1048  Recieved(msg.sender, msg.value) */\n      0xffffffffffffffffffffffffffffffffffffffff\n      and\n      0xe03f2fbffd55aceaa08b8e27b348ae6b7607e8a520dfe6a92b053c2ce0ac850a\n        /* \"contracts/Willcontract.sol\":1038:1047  msg.value */\n      callvalue\n        /* \"contracts/Willcontract.sol\":1017:1048  Recieved(msg.sender, msg.value) */\n      mload(0x40)\n      tag_15\n      swap2\n      swap1\n      tag_16\n      jump\t// in\n    tag_15:\n      mload(0x40)\n      dup1\n      swap2\n      sub\n      swap1\n      log2\n        /* \"contracts/Willcontract.sol\":58:2413  contract Will{... */\n      stop\n    tag_2:\n        /* \"contracts/Willcontract.sol\":1112:1122  msg.sender */\n      caller\n        /* \"contracts/Willcontract.sol\":1103:1134  Recieved(msg.sender, msg.value) */\n      0xffffffffffffffffffffffffffffffffffffffff\n      and\n      0xe03f2fbffd55aceaa08b8e27b348ae6b7607e8a520dfe6a92b053c2ce0ac850a\n        /* \"contracts/Willcontract.sol\":1124:1133  msg.value */\n      callvalue\n        /* \"contracts/Willcontract.sol\":1103:1134  Recieved(msg.sender, msg.value) */\n      mload(0x40)\n      tag_19\n      swap2\n      swap1\n      tag_16\n      jump\t// in\n    tag_19:\n      mload(0x40)\n      dup1\n      swap2\n      sub\n      swap1\n      log2\n        /* \"contracts/Willcontract.sol\":58:2413  contract Will{... */\n      stop\n        /* \"contracts/Willcontract.sol\":2043:2202  function canRecipientDrain() external view returns (bool) {... */\n    tag_3:\n      callvalue\n      dup1\n      iszero\n      tag_20\n      jumpi\n      revert(0x00, 0x00)\n    tag_20:\n      pop\n      tag_21\n      tag_22\n      jump\t// in\n    tag_21:\n      mload(0x40)\n      tag_23\n      swap2\n      swap1\n      tag_24\n      jump\t// in\n    tag_23:\n      mload(0x40)\n      dup1\n      swap2\n      sub\n      swap1\n      return\n        /* \"contracts/Willcontract.sol\":198:221  uint256 public lastPing */\n    tag_4:\n      callvalue\n      dup1\n      iszero\n      tag_25\n      jumpi\n      revert(0x00, 0x00)\n    tag_25:\n      pop\n      tag_26\n      tag_27\n      jump\t// in\n    tag_26:\n      mload(0x40)\n      tag_28\n      swap2\n      swap1\n      tag_16\n      jump\t// in\n    tag_28:\n      mload(0x40)\n      dup1\n      swap2\n      sub\n      swap1\n      return\n        /* \"contracts/Willcontract.sol\":2207:2410  function secondsUntilDrain() external view returns (uint256) {... */\n    tag_5:\n      callvalue\n      dup1\n      iszero\n      tag_29\n      jumpi\n      revert(0x00, 0x00)\n    tag_29:\n      pop\n      tag_30\n      tag_31\n      jump\t// in\n    tag_30:\n      mload(0x40)\n      tag_32\n      swap2\n      swap1\n      tag_16\n      jump\t// in\n    tag_32:\n      mload(0x40)\n      dup1\n      swap2\n      sub\n      swap1\n      return\n        /* \"contracts/Willcontract.sol\":1528:1650  function ping() external Onlyowner{... */\n    tag_6:\n      callvalue\n      dup1\n      iszero\n      tag_33\n      jumpi\n      revert(0x00, 0x00)\n    tag_33:\n      pop\n      tag_34\n      tag_35\n      jump\t// in\n    tag_34:\n      stop\n        /* \"contracts/Willcontract.sol\":168:192  address public recipient */\n    tag_7:\n      callvalue\n      dup1\n      iszero\n      tag_36\n      jumpi\n      revert(0x00, 0x00)\n    tag_36:\n      pop\n      tag_37\n      tag_38\n      jump\t// in\n    tag_37:\n      mload(0x40)\n      tag_39\n      swap2\n      swap1\n      tag_40\n      jump\t// in\n    tag_39:\n      mload(0x40)\n      dup1\n      swap2\n      sub\n      swap1\n      return\n        /* \"contracts/Willcontract.sol\":142:162  address public owner */\n    tag_8:\n      callvalue\n      dup1\n      iszero\n      tag_41\n      jumpi\n      revert(0x00, 0x00)\n    tag_41:\n      pop\n      tag_42\n      tag_43\n      jump\t// in\n    tag_42:\n      mload(0x40)\n      tag_44\n      swap2\n      swap1\n      tag_40\n      jump\t// in\n    tag_44:\n      mload(0x40)\n      dup1\n      swap2\n      sub\n      swap1\n      return\n        /* \"contracts/Willcontract.sol\":228:279  uint256 public constant INACTIVITY_PERIOD= 365 days */\n    tag_9:\n      callvalue\n      dup1\n      iszero\n      tag_45\n      jumpi\n      revert(0x00, 0x00)\n    tag_45:\n      pop\n      tag_46\n      tag_47\n      jump\t// in\n    tag_46:\n      mload(0x40)\n      tag_48\n      swap2\n      swap1\n      tag_16\n      jump\t// in\n    tag_48:\n      mload(0x40)\n      dup1\n      swap2\n      sub\n      swap1\n      return\n        /* \"contracts/Willcontract.sol\":1335:1522  function changeRecipeint(address _newRecipient)external Onlyowner{... */\n    tag_10:\n      callvalue\n      dup1\n      iszero\n      tag_49\n      jumpi\n      revert(0x00, 0x00)\n    tag_49:\n      pop\n      tag_50\n      0x04\n      dup1\n      calldatasize\n      sub\n      dup2\n      add\n      swap1\n      tag_51\n      swap2\n      swap1\n      tag_52\n      jump\t// in\n    tag_51:\n      tag_53\n      jump\t// in\n    tag_50:\n      stop\n        /* \"contracts/Willcontract.sol\":1681:2038  function Drain()external onlyRecipient{... */\n    tag_11:\n      callvalue\n      dup1\n      iszero\n      tag_54\n      jumpi\n      revert(0x00, 0x00)\n    tag_54:\n      pop\n      tag_55\n      tag_56\n      jump\t// in\n    tag_55:\n      stop\n        /* \"contracts/Willcontract.sol\":2043:2202  function canRecipientDrain() external view returns (bool) {... */\n    tag_22:\n        /* \"contracts/Willcontract.sol\":2095:2099  bool */\n      0x00\n        /* \"contracts/Willcontract.sol\":2133:2142  recipient */\n      0x01\n      0x00\n      swap1\n      sload\n      swap1\n      0x0100\n      exp\n      swap1\n      div\n      0xffffffffffffffffffffffffffffffffffffffff\n      and\n        /* \"contracts/Willcontract.sol\":2119:2142  msg.sender == recipient */\n      0xffffffffffffffffffffffffffffffffffffffff\n      and\n        /* \"contracts/Willcontract.sol\":2119:2129  msg.sender */\n      caller\n        /* \"contracts/Willcontract.sol\":2119:2142  msg.sender == recipient */\n      0xffffffffffffffffffffffffffffffffffffffff\n      and\n      eq\n        /* \"contracts/Willcontract.sol\":2118:2195  (msg.sender == recipient) && (block.timestamp > lastPing + INACTIVITY_PERIOD) */\n      dup1\n      iszero\n      tag_58\n      jumpi\n      pop\n        /* \"contracts/Willcontract.sol\":271:279  365 days */\n      0x01e13380\n        /* \"contracts/Willcontract.sol\":2166:2174  lastPing */\n      sload(0x02)\n        /* \"contracts/Willcontract.sol\":2166:2194  lastPing + INACTIVITY_PERIOD */\n      tag_59\n      swap2\n      swap1\n      tag_60\n      jump\t// in\n    tag_59:\n        /* \"contracts/Willcontract.sol\":2148:2163  block.timestamp */\n      timestamp\n        /* \"contracts/Willcontract.sol\":2148:2194  block.timestamp > lastPing + INACTIVITY_PERIOD */\n      gt\n        /* \"contracts/Willcontract.sol\":2118:2195  (msg.sender == recipient) && (block.timestamp > lastPing + INACTIVITY_PERIOD) */\n    tag_58:\n        /* \"contracts/Willcontract.sol\":2111:2195  return (msg.sender == recipient) && (block.timestamp > lastPing + INACTIVITY_PERIOD) */\n      swap1\n      pop\n        /* \"contracts/Willcontract.sol\":2043:2202  function canRecipientDrain() external view returns (bool) {... */\n      swap1\n      jump\t// out\n        /* \"contracts/Willcontract.sol\":198:221  uint256 public lastPing */\n    tag_27:\n      sload(0x02)\n      dup2\n      jump\t// out\n        /* \"contracts/Willcontract.sol\":2207:2410  function secondsUntilDrain() external view returns (uint256) {... */\n    tag_31:\n        /* \"contracts/Willcontract.sol\":2259:2266  uint256 */\n      0x00\n        /* \"contracts/Willcontract.sol\":271:279  365 days */\n      0x01e13380\n        /* \"contracts/Willcontract.sol\":2300:2308  lastPing */\n      sload(0x02)\n        /* \"contracts/Willcontract.sol\":2300:2328  lastPing + INACTIVITY_PERIOD */\n      tag_62\n      swap2\n      swap1\n      tag_60\n      jump\t// in\n    tag_62:\n        /* \"contracts/Willcontract.sol\":2282:2297  block.timestamp */\n      timestamp\n        /* \"contracts/Willcontract.sol\":2282:2328  block.timestamp > lastPing + INACTIVITY_PERIOD */\n      gt\n        /* \"contracts/Willcontract.sol\":2278:2338  if (block.timestamp > lastPing + INACTIVITY_PERIOD) return 0 */\n      iszero\n      tag_63\n      jumpi\n        /* \"contracts/Willcontract.sol\":2337:2338  0 */\n      0x00\n        /* \"contracts/Willcontract.sol\":2330:2338  return 0 */\n      swap1\n      pop\n      jump(tag_61)\n        /* \"contracts/Willcontract.sol\":2278:2338  if (block.timestamp > lastPing + INACTIVITY_PERIOD) return 0 */\n    tag_63:\n        /* \"contracts/Willcontract.sol\":2388:2403  block.timestamp */\n      timestamp\n        /* \"contracts/Willcontract.sol\":271:279  365 days */\n      0x01e13380\n        /* \"contracts/Willcontract.sol\":2356:2364  lastPing */\n      sload(0x02)\n        /* \"contracts/Willcontract.sol\":2356:2384  lastPing + INACTIVITY_PERIOD */\n      tag_64\n      swap2\n      swap1\n      tag_60\n      jump\t// in\n    tag_64:\n        /* \"contracts/Willcontract.sol\":2355:2403  (lastPing + INACTIVITY_PERIOD) - block.timestamp */\n      tag_65\n      swap2\n      swap1\n      tag_66\n      jump\t// in\n    tag_65:\n        /* \"contracts/Willcontract.sol\":2348:2403  return (lastPing + INACTIVITY_PERIOD) - block.timestamp */\n      swap1\n      pop\n        /* \"contracts/Willcontract.sol\":2207:2410  function secondsUntilDrain() external view returns (uint256) {... */\n    tag_61:\n      swap1\n      jump\t// out\n        /* \"contracts/Willcontract.sol\":1528:1650  function ping() external Onlyowner{... */\n    tag_35:\n        /* \"contracts/Willcontract.sol\":600:605  owner */\n      0x00\n      0x00\n      swap1\n      sload\n      swap1\n      0x0100\n      exp\n      swap1\n      div\n      0xffffffffffffffffffffffffffffffffffffffff\n      and\n        /* \"contracts/Willcontract.sol\":588:605  msg.sender==owner */\n      0xffffffffffffffffffffffffffffffffffffffff\n      and\n        /* \"contracts/Willcontract.sol\":588:598  msg.sender */\n      caller\n        /* \"contracts/Willcontract.sol\":588:605  msg.sender==owner */\n      0xffffffffffffffffffffffffffffffffffffffff\n      and\n      eq\n        /* \"contracts/Willcontract.sol\":580:619  require(msg.sender==owner,\"only owner\") */\n      tag_68\n      jumpi\n      mload(0x40)\n      0x08c379a000000000000000000000000000000000000000000000000000000000\n      dup2\n      mstore\n      0x04\n      add\n      tag_69\n      swap1\n      tag_70\n      jump\t// in\n    tag_69:\n      mload(0x40)\n      dup1\n      swap2\n      sub\n      swap1\n      revert\n    tag_68:\n        /* \"contracts/Willcontract.sol\":1581:1596  block.timestamp */\n      timestamp\n        /* \"contracts/Willcontract.sol\":1572:1580  lastPing */\n      0x02\n        /* \"contracts/Willcontract.sol\":1572:1596  lastPing=block.timestamp */\n      dup2\n      swap1\n      sstore\n      pop\n        /* \"contracts/Willcontract.sol\":1616:1626  msg.sender */\n      caller\n        /* \"contracts/Willcontract.sol\":1611:1643  Ping(msg.sender,block.timestamp) */\n      0xffffffffffffffffffffffffffffffffffffffff\n      and\n      0xfd8d0c1dc3ab254ec49463a1192bb2423b3b851adedec1aa94dcd362dc063c9d\n        /* \"contracts/Willcontract.sol\":1627:1642  block.timestamp */\n      timestamp\n        /* \"contracts/Willcontract.sol\":1611:1643  Ping(msg.sender,block.timestamp) */\n      mload(0x40)\n      tag_72\n      swap2\n      swap1\n      tag_16\n      jump\t// in\n    tag_72:\n      mload(0x40)\n      dup1\n      swap2\n      sub\n      swap1\n      log2\n        /* \"contracts/Willcontract.sol\":1528:1650  function ping() external Onlyowner{... */\n      jump\t// out\n        /* \"contracts/Willcontract.sol\":168:192  address public recipient */\n    tag_38:\n      0x01\n      0x00\n      swap1\n      sload\n      swap1\n      0x0100\n      exp\n      swap1\n      div\n      0xffffffffffffffffffffffffffffffffffffffff\n      and\n      dup2\n      jump\t// out\n        /* \"contracts/Willcontract.sol\":142:162  address public owner */\n    tag_43:\n      0x00\n      0x00\n      swap1\n      sload\n      swap1\n      0x0100\n      exp\n      swap1\n      div\n      0xffffffffffffffffffffffffffffffffffffffff\n      and\n      dup2\n      jump\t// out\n        /* \"contracts/Willcontract.sol\":228:279  uint256 public constant INACTIVITY_PERIOD= 365 days */\n    tag_47:\n        /* \"contracts/Willcontract.sol\":271:279  365 days */\n      0x01e13380\n        /* \"contracts/Willcontract.sol\":228:279  uint256 public constant INACTIVITY_PERIOD= 365 days */\n      dup2\n      jump\t// out\n        /* \"contracts/Willcontract.sol\":1335:1522  function changeRecipeint(address _newRecipient)external Onlyowner{... */\n    tag_53:\n        /* \"contracts/Willcontract.sol\":600:605  owner */\n      0x00\n      0x00\n      swap1\n      sload\n      swap1\n      0x0100\n      exp\n      swap1\n      div\n      0xffffffffffffffffffffffffffffffffffffffff\n      and\n        /* \"contracts/Willcontract.sol\":588:605  msg.sender==owner */\n      0xffffffffffffffffffffffffffffffffffffffff\n      and\n        /* \"contracts/Willcontract.sol\":588:598  msg.sender */\n      caller\n        /* \"contracts/Willcontract.sol\":588:605  msg.sender==owner */\n      0xffffffffffffffffffffffffffffffffffffffff\n      and\n      eq\n        /* \"contracts/Willcontract.sol\":580:619  require(msg.sender==owner,\"only owner\") */\n      tag_74\n      jumpi\n      mload(0x40)\n      0x08c379a000000000000000000000000000000000000000000000000000000000\n      dup2\n      mstore\n      0x04\n      add\n      tag_75\n      swap1\n      tag_70\n      jump\t// in\n    tag_75:\n      mload(0x40)\n      dup1\n      swap2\n      sub\n      swap1\n      revert\n    tag_74:\n        /* \"contracts/Willcontract.sol\":1410:1421  address old */\n      0x00\n        /* \"contracts/Willcontract.sol\":1422:1431  recipient */\n      0x01\n      0x00\n      swap1\n      sload\n      swap1\n      0x0100\n      exp\n      swap1\n      div\n      0xffffffffffffffffffffffffffffffffffffffff\n      and\n        /* \"contracts/Willcontract.sol\":1410:1431  address old=recipient */\n      swap1\n      pop\n        /* \"contracts/Willcontract.sol\":1451:1464  _newRecipient */\n      dup2\n        /* \"contracts/Willcontract.sol\":1441:1450  recipient */\n      0x01\n      0x00\n        /* \"contracts/Willcontract.sol\":1441:1464  recipient=_newRecipient */\n      0x0100\n      exp\n      dup2\n      sload\n      dup2\n      0xffffffffffffffffffffffffffffffffffffffff\n      mul\n      not\n      and\n      swap1\n      dup4\n      0xffffffffffffffffffffffffffffffffffffffff\n      and\n      mul\n      or\n      swap1\n      sstore\n      pop\n        /* \"contracts/Willcontract.sol\":1501:1514  _newRecipient */\n      dup2\n        /* \"contracts/Willcontract.sol\":1479:1515  RecipientChanged(old, _newRecipient) */\n      0xffffffffffffffffffffffffffffffffffffffff\n      and\n        /* \"contracts/Willcontract.sol\":1496:1499  old */\n      dup2\n        /* \"contracts/Willcontract.sol\":1479:1515  RecipientChanged(old, _newRecipient) */\n      0xffffffffffffffffffffffffffffffffffffffff\n      and\n      0x4a9d367b1b0cd787be10021f1c55cb49c9f2302334e6df35c9621005eb222514\n      mload(0x40)\n      mload(0x40)\n      dup1\n      swap2\n      sub\n      swap1\n      log3\n        /* \"contracts/Willcontract.sol\":1400:1522  {... */\n      pop\n        /* \"contracts/Willcontract.sol\":1335:1522  function changeRecipeint(address _newRecipient)external Onlyowner{... */\n      pop\n      jump\t// out\n        /* \"contracts/Willcontract.sol\":1681:2038  function Drain()external onlyRecipient{... */\n    tag_56:\n        /* \"contracts/Willcontract.sol\":699:708  recipient */\n      0x01\n      0x00\n      swap1\n      sload\n      swap1\n      0x0100\n      exp\n      swap1\n      div\n      0xffffffffffffffffffffffffffffffffffffffff\n      and\n        /* \"contracts/Willcontract.sol\":685:708  msg.sender == recipient */\n      0xffffffffffffffffffffffffffffffffffffffff\n      and\n        /* \"contracts/Willcontract.sol\":685:695  msg.sender */\n      caller\n        /* \"contracts/Willcontract.sol\":685:708  msg.sender == recipient */\n      0xffffffffffffffffffffffffffffffffffffffff\n      and\n      eq\n        /* \"contracts/Willcontract.sol\":677:727  require(msg.sender == recipient, \"Only recipient\") */\n      tag_78\n      jumpi\n      mload(0x40)\n      0x08c379a000000000000000000000000000000000000000000000000000000000\n      dup2\n      mstore\n      0x04\n      add\n      tag_79\n      swap1\n      tag_80\n      jump\t// in\n    tag_79:\n      mload(0x40)\n      dup1\n      swap2\n      sub\n      swap1\n      revert\n    tag_78:\n        /* \"contracts/Willcontract.sol\":271:279  365 days */\n      0x01e13380\n        /* \"contracts/Willcontract.sol\":1754:1762  lastPing */\n      sload(0x02)\n        /* \"contracts/Willcontract.sol\":1754:1780  lastPing+INACTIVITY_PERIOD */\n      tag_82\n      swap2\n      swap1\n      tag_60\n      jump\t// in\n    tag_82:\n        /* \"contracts/Willcontract.sol\":1737:1752  block.timestamp */\n      timestamp\n        /* \"contracts/Willcontract.sol\":1737:1780  block.timestamp>=lastPing+INACTIVITY_PERIOD */\n      lt\n      iszero\n        /* \"contracts/Willcontract.sol\":1729:1805  require(block.timestamp>=lastPing+INACTIVITY_PERIOD,\"owner is still active\") */\n      tag_83\n      jumpi\n      mload(0x40)\n      0x08c379a000000000000000000000000000000000000000000000000000000000\n      dup2\n      mstore\n      0x04\n      add\n      tag_84\n      swap1\n      tag_85\n      jump\t// in\n    tag_84:\n      mload(0x40)\n      dup1\n      swap2\n      sub\n      swap1\n      revert\n    tag_83:\n        /* \"contracts/Willcontract.sol\":1815:1830  uint256 balance */\n      0x00\n        /* \"contracts/Willcontract.sol\":1831:1852  address(this).balance */\n      selfbalance\n        /* \"contracts/Willcontract.sol\":1815:1852  uint256 balance=address(this).balance */\n      swap1\n      pop\n        /* \"contracts/Willcontract.sol\":1878:1879  0 */\n      0x00\n        /* \"contracts/Willcontract.sol\":1870:1877  balance */\n      dup2\n        /* \"contracts/Willcontract.sol\":1870:1879  balance>0 */\n      gt\n        /* \"contracts/Willcontract.sol\":1862:1891  require(balance>0,\"No Funds\") */\n      tag_86\n      jumpi\n      mload(0x40)\n      0x08c379a000000000000000000000000000000000000000000000000000000000\n      dup2\n      mstore\n      0x04\n      add\n      tag_87\n      swap1\n      tag_88\n      jump\t// in\n    tag_87:\n      mload(0x40)\n      dup1\n      swap2\n      sub\n      swap1\n      revert\n    tag_86:\n        /* \"contracts/Willcontract.sol\":1902:1909  bool ok */\n      0x00\n        /* \"contracts/Willcontract.sol\":1915:1924  recipient */\n      0x01\n      0x00\n      swap1\n      sload\n      swap1\n      0x0100\n      exp\n      swap1\n      div\n      0xffffffffffffffffffffffffffffffffffffffff\n      and\n        /* \"contracts/Willcontract.sol\":1915:1929  recipient.call */\n      0xffffffffffffffffffffffffffffffffffffffff\n      and\n        /* \"contracts/Willcontract.sol\":1937:1944  balance */\n      dup3\n        /* \"contracts/Willcontract.sol\":1915:1949  recipient.call{value: balance}(\"\") */\n      mload(0x40)\n      tag_89\n      swap1\n      tag_90\n      jump\t// in\n    tag_89:\n      0x00\n      mload(0x40)\n      dup1\n      dup4\n      sub\n      dup2\n      dup6\n      dup8\n      gas\n      call\n      swap3\n      pop\n      pop\n      pop\n      returndatasize\n      dup1\n      0x00\n      dup2\n      eq\n      tag_93\n      jumpi\n      mload(0x40)\n      swap2\n      pop\n      and(add(returndatasize, 0x3f), not(0x1f))\n      dup3\n      add\n      0x40\n      mstore\n      returndatasize\n      dup3\n      mstore\n      returndatasize\n      0x00\n      0x20\n      dup5\n      add\n      returndatacopy\n      jump(tag_92)\n    tag_93:\n      0x60\n      swap2\n      pop\n    tag_92:\n      pop\n        /* \"contracts/Willcontract.sol\":1901:1949  (bool ok, ) = recipient.call{value: balance}(\"\") */\n      pop\n      swap1\n      pop\n        /* \"contracts/Willcontract.sol\":1967:1969  ok */\n      dup1\n        /* \"contracts/Willcontract.sol\":1959:1989  require(ok, \"Transfer failed\") */\n      tag_94\n      jumpi\n      mload(0x40)\n      0x08c379a000000000000000000000000000000000000000000000000000000000\n      dup2\n      mstore\n      0x04\n      add\n      tag_95\n      swap1\n      tag_96\n      jump\t// in\n    tag_95:\n      mload(0x40)\n      dup1\n      swap2\n      sub\n      swap1\n      revert\n    tag_94:\n        /* \"contracts/Willcontract.sol\":2012:2021  recipient */\n      0x01\n      0x00\n      swap1\n      sload\n      swap1\n      0x0100\n      exp\n      swap1\n      div\n      0xffffffffffffffffffffffffffffffffffffffff\n      and\n        /* \"contracts/Willcontract.sol\":2004:2031  Drained(recipient, balance) */\n      0xffffffffffffffffffffffffffffffffffffffff\n      and\n      0xb2559daa129ad136aac2133ac6a0c75920abbef7d6663a017a94e181b13786c3\n        /* \"contracts/Willcontract.sol\":2023:2030  balance */\n      dup4\n        /* \"contracts/Willcontract.sol\":2004:2031  Drained(recipient, balance) */\n      mload(0x40)\n      tag_97\n      swap2\n      swap1\n      tag_16\n      jump\t// in\n    tag_97:\n      mload(0x40)\n      dup1\n      swap2\n      sub\n      swap1\n      log2\n        /* \"contracts/Willcontract.sol\":1719:2038  {... */\n      pop\n      pop\n        /* \"contracts/Willcontract.sol\":1681:2038  function Drain()external onlyRecipient{... */\n      jump\t// out\n        /* \"#utility.yul\":7:84   */\n    tag_98:\n        /* \"#utility.yul\":44:51   */\n      0x00\n        /* \"#utility.yul\":73:78   */\n      dup2\n        /* \"#utility.yul\":62:78   */\n      swap1\n      pop\n        /* \"#utility.yul\":7:84   */\n      swap2\n      swap1\n      pop\n      jump\t// out\n        /* \"#utility.yul\":90:208   */\n    tag_99:\n        /* \"#utility.yul\":177:201   */\n      tag_128\n        /* \"#utility.yul\":195:200   */\n      dup2\n        /* \"#utility.yul\":177:201   */\n      tag_98\n      jump\t// in\n    tag_128:\n        /* \"#utility.yul\":172:175   */\n      dup3\n        /* \"#utility.yul\":165:202   */\n      mstore\n        /* \"#utility.yul\":90:208   */\n      pop\n      pop\n      jump\t// out\n        /* \"#utility.yul\":214:436   */\n    tag_16:\n        /* \"#utility.yul\":307:311   */\n      0x00\n        /* \"#utility.yul\":345:347   */\n      0x20\n        /* \"#utility.yul\":334:343   */\n      dup3\n        /* \"#utility.yul\":330:348   */\n      add\n        /* \"#utility.yul\":322:348   */\n      swap1\n      pop\n        /* \"#utility.yul\":358:429   */\n      tag_130\n        /* \"#utility.yul\":426:427   */\n      0x00\n        /* \"#utility.yul\":415:424   */\n      dup4\n        /* \"#utility.yul\":411:428   */\n      add\n        /* \"#utility.yul\":402:408   */\n      dup5\n        /* \"#utility.yul\":358:429   */\n      tag_99\n      jump\t// in\n    tag_130:\n        /* \"#utility.yul\":214:436   */\n      swap3\n      swap2\n      pop\n      pop\n      jump\t// out\n        /* \"#utility.yul\":442:532   */\n    tag_100:\n        /* \"#utility.yul\":476:483   */\n      0x00\n        /* \"#utility.yul\":519:524   */\n      dup2\n        /* \"#utility.yul\":512:525   */\n      iszero\n        /* \"#utility.yul\":505:526   */\n      iszero\n        /* \"#utility.yul\":494:526   */\n      swap1\n      pop\n        /* \"#utility.yul\":442:532   */\n      swap2\n      swap1\n      pop\n      jump\t// out\n        /* \"#utility.yul\":538:647   */\n    tag_101:\n        /* \"#utility.yul\":619:640   */\n      tag_133\n        /* \"#utility.yul\":634:639   */\n      dup2\n        /* \"#utility.yul\":619:640   */\n      tag_100\n      jump\t// in\n    tag_133:\n        /* \"#utility.yul\":614:617   */\n      dup3\n        /* \"#utility.yul\":607:641   */\n      mstore\n        /* \"#utility.yul\":538:647   */\n      pop\n      pop\n      jump\t// out\n        /* \"#utility.yul\":653:863   */\n    tag_24:\n        /* \"#utility.yul\":740:744   */\n      0x00\n        /* \"#utility.yul\":778:780   */\n      0x20\n        /* \"#utility.yul\":767:776   */\n      dup3\n        /* \"#utility.yul\":763:781   */\n      add\n        /* \"#utility.yul\":755:781   */\n      swap1\n      pop\n        /* \"#utility.yul\":791:856   */\n      tag_135\n        /* \"#utility.yul\":853:854   */\n      0x00\n        /* \"#utility.yul\":842:851   */\n      dup4\n        /* \"#utility.yul\":838:855   */\n      add\n        /* \"#utility.yul\":829:835   */\n      dup5\n        /* \"#utility.yul\":791:856   */\n      tag_101\n      jump\t// in\n    tag_135:\n        /* \"#utility.yul\":653:863   */\n      swap3\n      swap2\n      pop\n      pop\n      jump\t// out\n        /* \"#utility.yul\":869:995   */\n    tag_102:\n        /* \"#utility.yul\":906:913   */\n      0x00\n        /* \"#utility.yul\":946:988   */\n      0xffffffffffffffffffffffffffffffffffffffff\n        /* \"#utility.yul\":939:944   */\n      dup3\n        /* \"#utility.yul\":935:989   */\n      and\n        /* \"#utility.yul\":924:989   */\n      swap1\n      pop\n        /* \"#utility.yul\":869:995   */\n      swap2\n      swap1\n      pop\n      jump\t// out\n        /* \"#utility.yul\":1001:1097   */\n    tag_103:\n        /* \"#utility.yul\":1038:1045   */\n      0x00\n        /* \"#utility.yul\":1067:1091   */\n      tag_138\n        /* \"#utility.yul\":1085:1090   */\n      dup3\n        /* \"#utility.yul\":1067:1091   */\n      tag_102\n      jump\t// in\n    tag_138:\n        /* \"#utility.yul\":1056:1091   */\n      swap1\n      pop\n        /* \"#utility.yul\":1001:1097   */\n      swap2\n      swap1\n      pop\n      jump\t// out\n        /* \"#utility.yul\":1103:1221   */\n    tag_104:\n        /* \"#utility.yul\":1190:1214   */\n      tag_140\n        /* \"#utility.yul\":1208:1213   */\n      dup2\n        /* \"#utility.yul\":1190:1214   */\n      tag_103\n      jump\t// in\n    tag_140:\n        /* \"#utility.yul\":1185:1188   */\n      dup3\n        /* \"#utility.yul\":1178:1215   */\n      mstore\n        /* \"#utility.yul\":1103:1221   */\n      pop\n      pop\n      jump\t// out\n        /* \"#utility.yul\":1227:1449   */\n    tag_40:\n        /* \"#utility.yul\":1320:1324   */\n      0x00\n        /* \"#utility.yul\":1358:1360   */\n      0x20\n        /* \"#utility.yul\":1347:1356   */\n      dup3\n        /* \"#utility.yul\":1343:1361   */\n      add\n        /* \"#utility.yul\":1335:1361   */\n      swap1\n      pop\n        /* \"#utility.yul\":1371:1442   */\n      tag_142\n        /* \"#utility.yul\":1439:1440   */\n      0x00\n        /* \"#utility.yul\":1428:1437   */\n      dup4\n        /* \"#utility.yul\":1424:1441   */\n      add\n        /* \"#utility.yul\":1415:1421   */\n      dup5\n        /* \"#utility.yul\":1371:1442   */\n      tag_104\n      jump\t// in\n    tag_142:\n        /* \"#utility.yul\":1227:1449   */\n      swap3\n      swap2\n      pop\n      pop\n      jump\t// out\n        /* \"#utility.yul\":1536:1653   */\n    tag_106:\n        /* \"#utility.yul\":1645:1646   */\n      0x00\n        /* \"#utility.yul\":1642:1643   */\n      0x00\n        /* \"#utility.yul\":1635:1647   */\n      revert\n        /* \"#utility.yul\":1782:1904   */\n    tag_108:\n        /* \"#utility.yul\":1855:1879   */\n      tag_147\n        /* \"#utility.yul\":1873:1878   */\n      dup2\n        /* \"#utility.yul\":1855:1879   */\n      tag_103\n      jump\t// in\n    tag_147:\n        /* \"#utility.yul\":1848:1853   */\n      dup2\n        /* \"#utility.yul\":1845:1880   */\n      eq\n        /* \"#utility.yul\":1835:1898   */\n      tag_148\n      jumpi\n        /* \"#utility.yul\":1894:1895   */\n      0x00\n        /* \"#utility.yul\":1891:1892   */\n      0x00\n        /* \"#utility.yul\":1884:1896   */\n      revert\n        /* \"#utility.yul\":1835:1898   */\n    tag_148:\n        /* \"#utility.yul\":1782:1904   */\n      pop\n      jump\t// out\n        /* \"#utility.yul\":1910:2049   */\n    tag_109:\n        /* \"#utility.yul\":1956:1961   */\n      0x00\n        /* \"#utility.yul\":1994:2000   */\n      dup2\n        /* \"#utility.yul\":1981:2001   */\n      calldataload\n        /* \"#utility.yul\":1972:2001   */\n      swap1\n      pop\n        /* \"#utility.yul\":2010:2043   */\n      tag_150\n        /* \"#utility.yul\":2037:2042   */\n      dup2\n        /* \"#utility.yul\":2010:2043   */\n      tag_108\n      jump\t// in\n    tag_150:\n        /* \"#utility.yul\":1910:2049   */\n      swap3\n      swap2\n      pop\n      pop\n      jump\t// out\n        /* \"#utility.yul\":2055:2384   */\n    tag_52:\n        /* \"#utility.yul\":2114:2120   */\n      0x00\n        /* \"#utility.yul\":2163:2165   */\n      0x20\n        /* \"#utility.yul\":2151:2160   */\n      dup3\n        /* \"#utility.yul\":2142:2149   */\n      dup5\n        /* \"#utility.yul\":2138:2161   */\n      sub\n        /* \"#utility.yul\":2134:2166   */\n      slt\n        /* \"#utility.yul\":2131:2250   */\n      iszero\n      tag_152\n      jumpi\n        /* \"#utility.yul\":2169:2248   */\n      tag_153\n      tag_106\n      jump\t// in\n    tag_153:\n        /* \"#utility.yul\":2131:2250   */\n    tag_152:\n        /* \"#utility.yul\":2289:2290   */\n      0x00\n        /* \"#utility.yul\":2314:2367   */\n      tag_154\n        /* \"#utility.yul\":2359:2366   */\n      dup5\n        /* \"#utility.yul\":2350:2356   */\n      dup3\n        /* \"#utility.yul\":2339:2348   */\n      dup6\n        /* \"#utility.yul\":2335:2357   */\n      add\n        /* \"#utility.yul\":2314:2367   */\n      tag_109\n      jump\t// in\n    tag_154:\n        /* \"#utility.yul\":2304:2367   */\n      swap2\n      pop\n        /* \"#utility.yul\":2260:2377   */\n      pop\n        /* \"#utility.yul\":2055:2384   */\n      swap3\n      swap2\n      pop\n      pop\n      jump\t// out\n        /* \"#utility.yul\":2390:2570   */\n    tag_110:\n        /* \"#utility.yul\":2438:2515   */\n      0x4e487b7100000000000000000000000000000000000000000000000000000000\n        /* \"#utility.yul\":2435:2436   */\n      0x00\n        /* \"#utility.yul\":2428:2516   */\n      mstore\n        /* \"#utility.yul\":2535:2539   */\n      0x11\n        /* \"#utility.yul\":2532:2533   */\n      0x04\n        /* \"#utility.yul\":2525:2540   */\n      mstore\n        /* \"#utility.yul\":2559:2563   */\n      0x24\n        /* \"#utility.yul\":2556:2557   */\n      0x00\n        /* \"#utility.yul\":2549:2564   */\n      revert\n        /* \"#utility.yul\":2576:2767   */\n    tag_60:\n        /* \"#utility.yul\":2616:2619   */\n      0x00\n        /* \"#utility.yul\":2635:2655   */\n      tag_157\n        /* \"#utility.yul\":2653:2654   */\n      dup3\n        /* \"#utility.yul\":2635:2655   */\n      tag_98\n      jump\t// in\n    tag_157:\n        /* \"#utility.yul\":2630:2655   */\n      swap2\n      pop\n        /* \"#utility.yul\":2669:2689   */\n      tag_158\n        /* \"#utility.yul\":2687:2688   */\n      dup4\n        /* \"#utility.yul\":2669:2689   */\n      tag_98\n      jump\t// in\n    tag_158:\n        /* \"#utility.yul\":2664:2689   */\n      swap3\n      pop\n        /* \"#utility.yul\":2712:2713   */\n      dup3\n        /* \"#utility.yul\":2709:2710   */\n      dup3\n        /* \"#utility.yul\":2705:2714   */\n      add\n        /* \"#utility.yul\":2698:2714   */\n      swap1\n      pop\n        /* \"#utility.yul\":2733:2736   */\n      dup1\n        /* \"#utility.yul\":2730:2731   */\n      dup3\n        /* \"#utility.yul\":2727:2737   */\n      gt\n        /* \"#utility.yul\":2724:2760   */\n      iszero\n      tag_159\n      jumpi\n        /* \"#utility.yul\":2740:2758   */\n      tag_160\n      tag_110\n      jump\t// in\n    tag_160:\n        /* \"#utility.yul\":2724:2760   */\n    tag_159:\n        /* \"#utility.yul\":2576:2767   */\n      swap3\n      swap2\n      pop\n      pop\n      jump\t// out\n        /* \"#utility.yul\":2773:2967   */\n    tag_66:\n        /* \"#utility.yul\":2813:2817   */\n      0x00\n        /* \"#utility.yul\":2833:2853   */\n      tag_162\n        /* \"#utility.yul\":2851:2852   */\n      dup3\n        /* \"#utility.yul\":2833:2853   */\n      tag_98\n      jump\t// in\n    tag_162:\n        /* \"#utility.yul\":2828:2853   */\n      swap2\n      pop\n        /* \"#utility.yul\":2867:2887   */\n      tag_163\n        /* \"#utility.yul\":2885:2886   */\n      dup4\n        /* \"#utility.yul\":2867:2887   */\n      tag_98\n      jump\t// in\n    tag_163:\n        /* \"#utility.yul\":2862:2887   */\n      swap3\n      pop\n        /* \"#utility.yul\":2911:2912   */\n      dup3\n        /* \"#utility.yul\":2908:2909   */\n      dup3\n        /* \"#utility.yul\":2904:2913   */\n      sub\n        /* \"#utility.yul\":2896:2913   */\n      swap1\n      pop\n        /* \"#utility.yul\":2935:2936   */\n      dup2\n        /* \"#utility.yul\":2929:2933   */\n      dup2\n        /* \"#utility.yul\":2926:2937   */\n      gt\n        /* \"#utility.yul\":2923:2960   */\n      iszero\n      tag_164\n      jumpi\n        /* \"#utility.yul\":2940:2958   */\n      tag_165\n      tag_110\n      jump\t// in\n    tag_165:\n        /* \"#utility.yul\":2923:2960   */\n    tag_164:\n        /* \"#utility.yul\":2773:2967   */\n      swap3\n      swap2\n      pop\n      pop\n      jump\t// out\n        /* \"#utility.yul\":2973:3142   */\n    tag_111:\n        /* \"#utility.yul\":3057:3068   */\n      0x00\n        /* \"#utility.yul\":3091:3097   */\n      dup3\n        /* \"#utility.yul\":3086:3089   */\n      dup3\n        /* \"#utility.yul\":3079:3098   */\n      mstore\n        /* \"#utility.yul\":3131:3135   */\n      0x20\n        /* \"#utility.yul\":3126:3129   */\n      dup3\n        /* \"#utility.yul\":3122:3136   */\n      add\n        /* \"#utility.yul\":3107:3136   */\n      swap1\n      pop\n        /* \"#utility.yul\":2973:3142   */\n      swap3\n      swap2\n      pop\n      pop\n      jump\t// out\n        /* \"#utility.yul\":3148:3308   */\n    tag_112:\n        /* \"#utility.yul\":3288:3300   */\n      0x6f6e6c79206f776e657200000000000000000000000000000000000000000000\n        /* \"#utility.yul\":3284:3285   */\n      0x00\n        /* \"#utility.yul\":3276:3282   */\n      dup3\n        /* \"#utility.yul\":3272:3286   */\n      add\n        /* \"#utility.yul\":3265:3301   */\n      mstore\n        /* \"#utility.yul\":3148:3308   */\n      pop\n      jump\t// out\n        /* \"#utility.yul\":3314:3680   */\n    tag_113:\n        /* \"#utility.yul\":3456:3459   */\n      0x00\n        /* \"#utility.yul\":3477:3544   */\n      tag_169\n        /* \"#utility.yul\":3541:3543   */\n      0x0a\n        /* \"#utility.yul\":3536:3539   */\n      dup4\n        /* \"#utility.yul\":3477:3544   */\n      tag_111\n      jump\t// in\n    tag_169:\n        /* \"#utility.yul\":3470:3544   */\n      swap2\n      pop\n        /* \"#utility.yul\":3553:3646   */\n      tag_170\n        /* \"#utility.yul\":3642:3645   */\n      dup3\n        /* \"#utility.yul\":3553:3646   */\n      tag_112\n      jump\t// in\n    tag_170:\n        /* \"#utility.yul\":3671:3673   */\n      0x20\n        /* \"#utility.yul\":3666:3669   */\n      dup3\n        /* \"#utility.yul\":3662:3674   */\n      add\n        /* \"#utility.yul\":3655:3674   */\n      swap1\n      pop\n        /* \"#utility.yul\":3314:3680   */\n      swap2\n      swap1\n      pop\n      jump\t// out\n        /* \"#utility.yul\":3686:4105   */\n    tag_70:\n        /* \"#utility.yul\":3852:3856   */\n      0x00\n        /* \"#utility.yul\":3890:3892   */\n      0x20\n        /* \"#utility.yul\":3879:3888   */\n      dup3\n        /* \"#utility.yul\":3875:3893   */\n      add\n        /* \"#utility.yul\":3867:3893   */\n      swap1\n      pop\n        /* \"#utility.yul\":3939:3948   */\n      dup2\n        /* \"#utility.yul\":3933:3937   */\n      dup2\n        /* \"#utility.yul\":3929:3949   */\n      sub\n        /* \"#utility.yul\":3925:3926   */\n      0x00\n        /* \"#utility.yul\":3914:3923   */\n      dup4\n        /* \"#utility.yul\":3910:3927   */\n      add\n        /* \"#utility.yul\":3903:3950   */\n      mstore\n        /* \"#utility.yul\":3967:4098   */\n      tag_172\n        /* \"#utility.yul\":4093:4097   */\n      dup2\n        /* \"#utility.yul\":3967:4098   */\n      tag_113\n      jump\t// in\n    tag_172:\n        /* \"#utility.yul\":3959:4098   */\n      swap1\n      pop\n        /* \"#utility.yul\":3686:4105   */\n      swap2\n      swap1\n      pop\n      jump\t// out\n        /* \"#utility.yul\":4111:4275   */\n    tag_114:\n        /* \"#utility.yul\":4251:4267   */\n      0x4f6e6c7920726563697069656e74000000000000000000000000000000000000\n        /* \"#utility.yul\":4247:4248   */\n      0x00\n        /* \"#utility.yul\":4239:4245   */\n      dup3\n        /* \"#utility.yul\":4235:4249   */\n      add\n        /* \"#utility.yul\":4228:4268   */\n      mstore\n        /* \"#utility.yul\":4111:4275   */\n      pop\n      jump\t// out\n        /* \"#utility.yul\":4281:4647   */\n    tag_115:\n        /* \"#utility.yul\":4423:4426   */\n      0x00\n        /* \"#utility.yul\":4444:4511   */\n      tag_175\n        /* \"#utility.yul\":4508:4510   */\n      0x0e\n        /* \"#utility.yul\":4503:4506   */\n      dup4\n        /* \"#utility.yul\":4444:4511   */\n      tag_111\n      jump\t// in\n    tag_175:\n        /* \"#utility.yul\":4437:4511   */\n      swap2\n      pop\n        /* \"#utility.yul\":4520:4613   */\n      tag_176\n        /* \"#utility.yul\":4609:4612   */\n      dup3\n        /* \"#utility.yul\":4520:4613   */\n      tag_114\n      jump\t// in\n    tag_176:\n        /* \"#utility.yul\":4638:4640   */\n      0x20\n        /* \"#utility.yul\":4633:4636   */\n      dup3\n        /* \"#utility.yul\":4629:4641   */\n      add\n        /* \"#utility.yul\":4622:4641   */\n      swap1\n      pop\n        /* \"#utility.yul\":4281:4647   */\n      swap2\n      swap1\n      pop\n      jump\t// out\n        /* \"#utility.yul\":4653:5072   */\n    tag_80:\n        /* \"#utility.yul\":4819:4823   */\n      0x00\n        /* \"#utility.yul\":4857:4859   */\n      0x20\n        /* \"#utility.yul\":4846:4855   */\n      dup3\n        /* \"#utility.yul\":4842:4860   */\n      add\n        /* \"#utility.yul\":4834:4860   */\n      swap1\n      pop\n        /* \"#utility.yul\":4906:4915   */\n      dup2\n        /* \"#utility.yul\":4900:4904   */\n      dup2\n        /* \"#utility.yul\":4896:4916   */\n      sub\n        /* \"#utility.yul\":4892:4893   */\n      0x00\n        /* \"#utility.yul\":4881:4890   */\n      dup4\n        /* \"#utility.yul\":4877:4894   */\n      add\n        /* \"#utility.yul\":4870:4917   */\n      mstore\n        /* \"#utility.yul\":4934:5065   */\n      tag_178\n        /* \"#utility.yul\":5060:5064   */\n      dup2\n        /* \"#utility.yul\":4934:5065   */\n      tag_115\n      jump\t// in\n    tag_178:\n        /* \"#utility.yul\":4926:5065   */\n      swap1\n      pop\n        /* \"#utility.yul\":4653:5072   */\n      swap2\n      swap1\n      pop\n      jump\t// out\n        /* \"#utility.yul\":5078:5249   */\n    tag_116:\n        /* \"#utility.yul\":5218:5241   */\n      0x6f776e6572206973207374696c6c206163746976650000000000000000000000\n        /* \"#utility.yul\":5214:5215   */\n      0x00\n        /* \"#utility.yul\":5206:5212   */\n      dup3\n        /* \"#utility.yul\":5202:5216   */\n      add\n        /* \"#utility.yul\":5195:5242   */\n      mstore\n        /* \"#utility.yul\":5078:5249   */\n      pop\n      jump\t// out\n        /* \"#utility.yul\":5255:5621   */\n    tag_117:\n        /* \"#utility.yul\":5397:5400   */\n      0x00\n        /* \"#utility.yul\":5418:5485   */\n      tag_181\n        /* \"#utility.yul\":5482:5484   */\n      0x15\n        /* \"#utility.yul\":5477:5480   */\n      dup4\n        /* \"#utility.yul\":5418:5485   */\n      tag_111\n      jump\t// in\n    tag_181:\n        /* \"#utility.yul\":5411:5485   */\n      swap2\n      pop\n        /* \"#utility.yul\":5494:5587   */\n      tag_182\n        /* \"#utility.yul\":5583:5586   */\n      dup3\n        /* \"#utility.yul\":5494:5587   */\n      tag_116\n      jump\t// in\n    tag_182:\n        /* \"#utility.yul\":5612:5614   */\n      0x20\n        /* \"#utility.yul\":5607:5610   */\n      dup3\n        /* \"#utility.yul\":5603:5615   */\n      add\n        /* \"#utility.yul\":5596:5615   */\n      swap1\n      pop\n        /* \"#utility.yul\":5255:5621   */\n      swap2\n      swap1\n      pop\n      jump\t// out\n        /* \"#utility.yul\":5627:6046   */\n    tag_85:\n        /* \"#utility.yul\":5793:5797   */\n      0x00\n        /* \"#utility.yul\":5831:5833   */\n      0x20\n        /* \"#utility.yul\":5820:5829   */\n      dup3\n        /* \"#utility.yul\":5816:5834   */\n      add\n        /* \"#utility.yul\":5808:5834   */\n      swap1\n      pop\n        /* \"#utility.yul\":5880:5889   */\n      dup2\n        /* \"#utility.yul\":5874:5878   */\n      dup2\n        /* \"#utility.yul\":5870:5890   */\n      sub\n        /* \"#utility.yul\":5866:5867   */\n      0x00\n        /* \"#utility.yul\":5855:5864   */\n      dup4\n        /* \"#utility.yul\":5851:5868   */\n      add\n        /* \"#utility.yul\":5844:5891   */\n      mstore\n        /* \"#utility.yul\":5908:6039   */\n      tag_184\n        /* \"#utility.yul\":6034:6038   */\n      dup2\n        /* \"#utility.yul\":5908:6039   */\n      tag_117\n      jump\t// in\n    tag_184:\n        /* \"#utility.yul\":5900:6039   */\n      swap1\n      pop\n        /* \"#utility.yul\":5627:6046   */\n      swap2\n      swap1\n      pop\n      jump\t// out\n        /* \"#utility.yul\":6052:6210   */\n    tag_118:\n        /* \"#utility.yul\":6192:6202   */\n      0x4e6f2046756e6473000000000000000000000000000000000000000000000000\n        /* \"#utility.yul\":6188:6189   */\n      0x00\n        /* \"#utility.yul\":6180:6186   */\n      dup3\n        /* \"#utility.yul\":6176:6190   */\n      add\n        /* \"#utility.yul\":6169:6203   */\n      mstore\n        /* \"#utility.yul\":6052:6210   */\n      pop\n      jump\t// out\n        /* \"#utility.yul\":6216:6581   */\n    tag_119:\n        /* \"#utility.yul\":6358:6361   */\n      0x00\n        /* \"#utility.yul\":6379:6445   */\n      tag_187\n        /* \"#utility.yul\":6443:6444   */\n      0x08\n        /* \"#utility.yul\":6438:6441   */\n      dup4\n        /* \"#utility.yul\":6379:6445   */\n      tag_111\n      jump\t// in\n    tag_187:\n        /* \"#utility.yul\":6372:6445   */\n      swap2\n      pop\n        /* \"#utility.yul\":6454:6547   */\n      tag_188\n        /* \"#utility.yul\":6543:6546   */\n      dup3\n        /* \"#utility.yul\":6454:6547   */\n      tag_118\n      jump\t// in\n    tag_188:\n        /* \"#utility.yul\":6572:6574   */\n      0x20\n        /* \"#utility.yul\":6567:6570   */\n      dup3\n        /* \"#utility.yul\":6563:6575   */\n      add\n        /* \"#utility.yul\":6556:6575   */\n      swap1\n      pop\n        /* \"#utility.yul\":6216:6581   */\n      swap2\n      swap1\n      pop\n      jump\t// out\n        /* \"#utility.yul\":6587:7006   */\n    tag_88:\n        /* \"#utility.yul\":6753:6757   */\n      0x00\n        /* \"#utility.yul\":6791:6793   */\n      0x20\n        /* \"#utility.yul\":6780:6789   */\n      dup3\n        /* \"#utility.yul\":6776:6794   */\n      add\n        /* \"#utility.yul\":6768:6794   */\n      swap1\n      pop\n        /* \"#utility.yul\":6840:6849   */\n      dup2\n        /* \"#utility.yul\":6834:6838   */\n      dup2\n        /* \"#utility.yul\":6830:6850   */\n      sub\n        /* \"#utility.yul\":6826:6827   */\n      0x00\n        /* \"#utility.yul\":6815:6824   */\n      dup4\n        /* \"#utility.yul\":6811:6828   */\n      add\n        /* \"#utility.yul\":6804:6851   */\n      mstore\n        /* \"#utility.yul\":6868:6999   */\n      tag_190\n        /* \"#utility.yul\":6994:6998   */\n      dup2\n        /* \"#utility.yul\":6868:6999   */\n      tag_119\n      jump\t// in\n    tag_190:\n        /* \"#utility.yul\":6860:6999   */\n      swap1\n      pop\n        /* \"#utility.yul\":6587:7006   */\n      swap2\n      swap1\n      pop\n      jump\t// out\n        /* \"#utility.yul\":7012:7159   */\n    tag_120:\n        /* \"#utility.yul\":7113:7124   */\n      0x00\n        /* \"#utility.yul\":7150:7153   */\n      dup2\n        /* \"#utility.yul\":7135:7153   */\n      swap1\n      pop\n        /* \"#utility.yul\":7012:7159   */\n      swap3\n      swap2\n      pop\n      pop\n      jump\t// out\n        /* \"#utility.yul\":7165:7279   */\n    tag_121:\n      pop\n      jump\t// out\n        /* \"#utility.yul\":7285:7683   */\n    tag_122:\n        /* \"#utility.yul\":7444:7447   */\n      0x00\n        /* \"#utility.yul\":7465:7548   */\n      tag_194\n        /* \"#utility.yul\":7546:7547   */\n      0x00\n        /* \"#utility.yul\":7541:7544   */\n      dup4\n        /* \"#utility.yul\":7465:7548   */\n      tag_120\n      jump\t// in\n    tag_194:\n        /* \"#utility.yul\":7458:7548   */\n      swap2\n      pop\n        /* \"#utility.yul\":7557:7650   */\n      tag_195\n        /* \"#utility.yul\":7646:7649   */\n      dup3\n        /* \"#utility.yul\":7557:7650   */\n      tag_121\n      jump\t// in\n    tag_195:\n        /* \"#utility.yul\":7675:7676   */\n      0x00\n        /* \"#utility.yul\":7670:7673   */\n      dup3\n        /* \"#utility.yul\":7666:7677   */\n      add\n        /* \"#utility.yul\":7659:7677   */\n      swap1\n      pop\n        /* \"#utility.yul\":7285:7683   */\n      swap2\n      swap1\n      pop\n      jump\t// out\n        /* \"#utility.yul\":7689:8068   */\n    tag_90:\n        /* \"#utility.yul\":7873:7876   */\n      0x00\n        /* \"#utility.yul\":7895:8042   */\n      tag_197\n        /* \"#utility.yul\":8038:8041   */\n      dup3\n        /* \"#utility.yul\":7895:8042   */\n      tag_122\n      jump\t// in\n    tag_197:\n        /* \"#utility.yul\":7888:8042   */\n      swap2\n      pop\n        /* \"#utility.yul\":8059:8062   */\n      dup2\n        /* \"#utility.yul\":8052:8062   */\n      swap1\n      pop\n        /* \"#utility.yul\":7689:8068   */\n      swap2\n      swap1\n      pop\n      jump\t// out\n        /* \"#utility.yul\":8074:8239   */\n    tag_123:\n        /* \"#utility.yul\":8214:8231   */\n      0x5472616e73666572206661696c65640000000000000000000000000000000000\n        /* \"#utility.yul\":8210:8211   */\n      0x00\n        /* \"#utility.yul\":8202:8208   */\n      dup3\n        /* \"#utility.yul\":8198:8212   */\n      add\n        /* \"#utility.yul\":8191:8232   */\n      mstore\n        /* \"#utility.yul\":8074:8239   */\n      pop\n      jump\t// out\n        /* \"#utility.yul\":8245:8611   */\n    tag_124:\n        /* \"#utility.yul\":8387:8390   */\n      0x00\n        /* \"#utility.yul\":8408:8475   */\n      tag_200\n        /* \"#utility.yul\":8472:8474   */\n      0x0f\n        /* \"#utility.yul\":8467:8470   */\n      dup4\n        /* \"#utility.yul\":8408:8475   */\n      tag_111\n      jump\t// in\n    tag_200:\n        /* \"#utility.yul\":8401:8475   */\n      swap2\n      pop\n        /* \"#utility.yul\":8484:8577   */\n      tag_201\n        /* \"#utility.yul\":8573:8576   */\n      dup3\n        /* \"#utility.yul\":8484:8577   */\n      tag_123\n      jump\t// in\n    tag_201:\n        /* \"#utility.yul\":8602:8604   */\n      0x20\n        /* \"#utility.yul\":8597:8600   */\n      dup3\n        /* \"#utility.yul\":8593:8605   */\n      add\n        /* \"#utility.yul\":8586:8605   */\n      swap1\n      pop\n        /* \"#utility.yul\":8245:8611   */\n      swap2\n      swap1\n      pop\n      jump\t// out\n        /* \"#utility.yul\":8617:9036   */\n    tag_96:\n        /* \"#utility.yul\":8783:8787   */\n      0x00\n        /* \"#utility.yul\":8821:8823   */\n      0x20\n        /* \"#utility.yul\":8810:8819   */\n      dup3\n        /* \"#utility.yul\":8806:8824   */\n      add\n        /* \"#utility.yul\":8798:8824   */\n      swap1\n      pop\n        /* \"#utility.yul\":8870:8879   */\n      dup2\n        /* \"#utility.yul\":8864:8868   */\n      dup2\n        /* \"#utility.yul\":8860:8880   */\n      sub\n        /* \"#utility.yul\":8856:8857   */\n      0x00\n        /* \"#utility.yul\":8845:8854   */\n      dup4\n        /* \"#utility.yul\":8841:8858   */\n      add\n        /* \"#utility.yul\":8834:8881   */\n      mstore\n        /* \"#utility.yul\":8898:9029   */\n      tag_203\n        /* \"#utility.yul\":9024:9028   */\n      dup2\n        /* \"#utility.yul\":8898:9029   */\n      tag_124\n      jump\t// in\n    tag_203:\n        /* \"#utility.yul\":8890:9029   */\n      swap1\n      pop\n        /* \"#utility.yul\":8617:9036   */\n      swap2\n      swap1\n      pop\n      jump\t// out\n\n    auxdata: 0xa26469706673582212207dd717f574bc12086d330808e188579d471b26e4f7d1609ce3bb619b4c2f707764736f6c634300081e0033\n}\n",
				"bytecode": {
					"linkReferences": {},
					"object": "6080604052604051610e2d380380610e2d83398181016040528101906100259190610166565b335f5f6101000a81548173ffffffffffffffffffffffffffffffffffffffff021916908373ffffffffffffffffffffffffffffffffffffffff1602179055508060015f6101000a81548173ffffffffffffffffffffffffffffffffffffffff021916908373ffffffffffffffffffffffffffffffffffffffff160217905550426002819055505f341115610102573373ffffffffffffffffffffffffffffffffffffffff167fe03f2fbffd55aceaa08b8e27b348ae6b7607e8a520dfe6a92b053c2ce0ac850a346040516100f991906101a9565b60405180910390a25b506101c2565b5f5ffd5b5f73ffffffffffffffffffffffffffffffffffffffff82169050919050565b5f6101358261010c565b9050919050565b6101458161012b565b811461014f575f5ffd5b50565b5f815190506101608161013c565b92915050565b5f6020828403121561017b5761017a610108565b5b5f61018884828501610152565b91505092915050565b5f819050919050565b6101a381610191565b82525050565b5f6020820190506101bc5f83018461019a565b92915050565b610c5e806101cf5f395ff3fe608060405260043610610089575f3560e01c806366d003ac1161005857806366d003ac146101c25780638da5cb5b146101ec578063b18ada6714610216578063d5b6240e14610240578063d67a073f14610268576100de565b80631f0255d21461012e5780632760c57e146101585780635424ecbc146101825780635c36b186146101ac576100de565b366100de573373ffffffffffffffffffffffffffffffffffffffff167fe03f2fbffd55aceaa08b8e27b348ae6b7607e8a520dfe6a92b053c2ce0ac850a346040516100d4919061083f565b60405180910390a2005b3373ffffffffffffffffffffffffffffffffffffffff167fe03f2fbffd55aceaa08b8e27b348ae6b7607e8a520dfe6a92b053c2ce0ac850a34604051610124919061083f565b60405180910390a2005b348015610139575f5ffd5b5061014261027e565b60405161014f9190610872565b60405180910390f35b348015610163575f5ffd5b5061016c6102f0565b604051610179919061083f565b60405180910390f35b34801561018d575f5ffd5b506101966102f6565b6040516101a3919061083f565b60405180910390f35b3480156101b7575f5ffd5b506101c061033b565b005b3480156101cd575f5ffd5b506101d6610420565b6040516101e391906108ca565b60405180910390f35b3480156101f7575f5ffd5b50610200610445565b60405161020d91906108ca565b60405180910390f35b348015610221575f5ffd5b5061022a610469565b604051610237919061083f565b60405180910390f35b34801561024b575f5ffd5b5061026660048036038101906102619190610911565b610471565b005b348015610273575f5ffd5b5061027c6105c2565b005b5f60015f9054906101000a900473ffffffffffffffffffffffffffffffffffffffff1673ffffffffffffffffffffffffffffffffffffffff163373ffffffffffffffffffffffffffffffffffffffff161480156102eb57506301e133806002546102e89190610969565b42115b905090565b60025481565b5f6301e133806002546103099190610969565b421115610318575f9050610338565b426301e1338060025461032b9190610969565b610335919061099c565b90505b90565b5f5f9054906101000a900473ffffffffffffffffffffffffffffffffffffffff1673ffffffffffffffffffffffffffffffffffffffff163373ffffffffffffffffffffffffffffffffffffffff16146103c9576040517f08c379a00000000000000000000000000000000000000000000000000000000081526004016103c090610a29565b60405180910390fd5b426002819055503373ffffffffffffffffffffffffffffffffffffffff167ffd8d0c1dc3ab254ec49463a1192bb2423b3b851adedec1aa94dcd362dc063c9d42604051610416919061083f565b60405180910390a2565b60015f9054906101000a900473ffffffffffffffffffffffffffffffffffffffff1681565b5f5f9054906101000a900473ffffffffffffffffffffffffffffffffffffffff1681565b6301e1338081565b5f5f9054906101000a900473ffffffffffffffffffffffffffffffffffffffff1673ffffffffffffffffffffffffffffffffffffffff163373ffffffffffffffffffffffffffffffffffffffff16146104ff576040517f08c379a00000000000000000000000000000000000000000000000000000000081526004016104f690610a29565b60405180910390fd5b5f60015f9054906101000a900473ffffffffffffffffffffffffffffffffffffffff1690508160015f6101000a81548173ffffffffffffffffffffffffffffffffffffffff021916908373ffffffffffffffffffffffffffffffffffffffff1602179055508173ffffffffffffffffffffffffffffffffffffffff168173ffffffffffffffffffffffffffffffffffffffff167f4a9d367b1b0cd787be10021f1c55cb49c9f2302334e6df35c9621005eb22251460405160405180910390a35050565b60015f9054906101000a900473ffffffffffffffffffffffffffffffffffffffff1673ffffffffffffffffffffffffffffffffffffffff163373ffffffffffffffffffffffffffffffffffffffff1614610651576040517f08c379a000000000000000000000000000000000000000000000000000000000815260040161064890610a91565b60405180910390fd5b6301e133806002546106639190610969565b4210156106a5576040517f08c379a000000000000000000000000000000000000000000000000000000000815260040161069c90610af9565b60405180910390fd5b5f4790505f81116106eb576040517f08c379a00000000000000000000000000000000000000000000000000000000081526004016106e290610b61565b60405180910390fd5b5f60015f9054906101000a900473ffffffffffffffffffffffffffffffffffffffff1673ffffffffffffffffffffffffffffffffffffffff168260405161073190610bac565b5f6040518083038185875af1925050503d805f811461076b576040519150601f19603f3d011682016040523d82523d5f602084013e610770565b606091505b50509050806107b4576040517f08c379a00000000000000000000000000000000000000000000000000000000081526004016107ab90610c0a565b60405180910390fd5b60015f9054906101000a900473ffffffffffffffffffffffffffffffffffffffff1673ffffffffffffffffffffffffffffffffffffffff167fb2559daa129ad136aac2133ac6a0c75920abbef7d6663a017a94e181b13786c38360405161081b919061083f565b60405180910390a25050565b5f819050919050565b61083981610827565b82525050565b5f6020820190506108525f830184610830565b92915050565b5f8115159050919050565b61086c81610858565b82525050565b5f6020820190506108855f830184610863565b92915050565b5f73ffffffffffffffffffffffffffffffffffffffff82169050919050565b5f6108b48261088b565b9050919050565b6108c4816108aa565b82525050565b5f6020820190506108dd5f8301846108bb565b92915050565b5f5ffd5b6108f0816108aa565b81146108fa575f5ffd5b50565b5f8135905061090b816108e7565b92915050565b5f60208284031215610926576109256108e3565b5b5f610933848285016108fd565b91505092915050565b7f4e487b71000000000000000000000000000000000000000000000000000000005f52601160045260245ffd5b5f61097382610827565b915061097e83610827565b92508282019050808211156109965761099561093c565b5b92915050565b5f6109a682610827565b91506109b183610827565b92508282039050818111156109c9576109c861093c565b5b92915050565b5f82825260208201905092915050565b7f6f6e6c79206f776e6572000000000000000000000000000000000000000000005f82015250565b5f610a13600a836109cf565b9150610a1e826109df565b602082019050919050565b5f6020820190508181035f830152610a4081610a07565b9050919050565b7f4f6e6c7920726563697069656e740000000000000000000000000000000000005f82015250565b5f610a7b600e836109cf565b9150610a8682610a47565b602082019050919050565b5f6020820190508181035f830152610aa881610a6f565b9050919050565b7f6f776e6572206973207374696c6c2061637469766500000000000000000000005f82015250565b5f610ae36015836109cf565b9150610aee82610aaf565b602082019050919050565b5f6020820190508181035f830152610b1081610ad7565b9050919050565b7f4e6f2046756e64730000000000000000000000000000000000000000000000005f82015250565b5f610b4b6008836109cf565b9150610b5682610b17565b602082019050919050565b5f6020820190508181035f830152610b7881610b3f565b9050919050565b5f81905092915050565b50565b5f610b975f83610b7f565b9150610ba282610b89565b5f82019050919050565b5f610bb682610b8c565b9150819050919050565b7f5472616e73666572206661696c656400000000000000000000000000000000005f82015250565b5f610bf4600f836109cf565b9150610bff82610bc0565b602082019050919050565b5f6020820190508181035f830152610c2181610be8565b905091905056fea26469706673582212207dd717f574bc12086d330808e188579d471b26e4f7d1609ce3bb619b4c2f707764736f6c634300081e0033",
					"opcodes": "PUSH1 0x80 PUSH1 0x40 MSTORE PUSH1 0x40 MLOAD PUSH2 0xE2D CODESIZE SUB DUP1 PUSH2 0xE2D DUP4 CODECOPY DUP2 DUP2 ADD PUSH1 0x40 MSTORE DUP2 ADD SWAP1 PUSH2 0x25 SWAP2 SWAP1 PUSH2 0x166 JUMP JUMPDEST CALLER PUSH0 PUSH0 PUSH2 0x100 EXP DUP2 SLOAD DUP2 PUSH20 0xFFFFFFFFFFFFFFFFFFFFFFFFFFFFFFFFFFFFFFFF MUL NOT AND SWAP1 DUP4 PUSH20 0xFFFFFFFFFFFFFFFFFFFFFFFFFFFFFFFFFFFFFFFF AND MUL OR SWAP1 SSTORE POP DUP1 PUSH1 0x1 PUSH0 PUSH2 0x100 EXP DUP2 SLOAD DUP2 PUSH20 0xFFFFFFFFFFFFFFFFFFFFFFFFFFFFFFFFFFFFFFFF MUL NOT AND SWAP1 DUP4 PUSH20 0xFFFFFFFFFFFFFFFFFFFFFFFFFFFFFFFFFFFFFFFF AND MUL OR SWAP1 SSTORE POP TIMESTAMP PUSH1 0x2 DUP2 SWAP1 SSTORE POP PUSH0 CALLVALUE GT ISZERO PUSH2 0x102 JUMPI CALLER PUSH20 0xFFFFFFFFFFFFFFFFFFFFFFFFFFFFFFFFFFFFFFFF AND PUSH32 0xE03F2FBFFD55ACEAA08B8E27B348AE6B7607E8A520DFE6A92B053C2CE0AC850A CALLVALUE PUSH1 0x40 MLOAD PUSH2 0xF9 SWAP2 SWAP1 PUSH2 0x1A9 JUMP JUMPDEST PUSH1 0x40 MLOAD DUP1 SWAP2 SUB SWAP1 LOG2 JUMPDEST POP PUSH2 0x1C2 JUMP JUMPDEST PUSH0 PUSH0 REVERT JUMPDEST PUSH0 PUSH20 0xFFFFFFFFFFFFFFFFFFFFFFFFFFFFFFFFFFFFFFFF DUP3 AND SWAP1 POP SWAP2 SWAP1 POP JUMP JUMPDEST PUSH0 PUSH2 0x135 DUP3 PUSH2 0x10C JUMP JUMPDEST SWAP1 POP SWAP2 SWAP1 POP JUMP JUMPDEST PUSH2 0x145 DUP2 PUSH2 0x12B JUMP JUMPDEST DUP2 EQ PUSH2 0x14F JUMPI PUSH0 PUSH0 REVERT JUMPDEST POP JUMP JUMPDEST PUSH0 DUP2 MLOAD SWAP1 POP PUSH2 0x160 DUP2 PUSH2 0x13C JUMP JUMPDEST SWAP3 SWAP2 POP POP JUMP JUMPDEST PUSH0 PUSH1 0x20 DUP3 DUP5 SUB SLT ISZERO PUSH2 0x17B JUMPI PUSH2 0x17A PUSH2 0x108 JUMP JUMPDEST JUMPDEST PUSH0 PUSH2 0x188 DUP5 DUP3 DUP6 ADD PUSH2 0x152 JUMP JUMPDEST SWAP2 POP POP SWAP3 SWAP2 POP POP JUMP JUMPDEST PUSH0 DUP2 SWAP1 POP SWAP2 SWAP1 POP JUMP JUMPDEST PUSH2 0x1A3 DUP2 PUSH2 0x191 JUMP JUMPDEST DUP3 MSTORE POP POP JUMP JUMPDEST PUSH0 PUSH1 0x20 DUP3 ADD SWAP1 POP PUSH2 0x1BC PUSH0 DUP4 ADD DUP5 PUSH2 0x19A JUMP JUMPDEST SWAP3 SWAP2 POP POP JUMP JUMPDEST PUSH2 0xC5E DUP1 PUSH2 0x1CF PUSH0 CODECOPY PUSH0 RETURN INVALID PUSH1 0x80 PUSH1 0x40 MSTORE PUSH1 0x4 CALLDATASIZE LT PUSH2 0x89 JUMPI PUSH0 CALLDATALOAD PUSH1 0xE0 SHR DUP1 PUSH4 0x66D003AC GT PUSH2 0x58 JUMPI DUP1 PUSH4 0x66D003AC EQ PUSH2 0x1C2 JUMPI DUP1 PUSH4 0x8DA5CB5B EQ PUSH2 0x1EC JUMPI DUP1 PUSH4 0xB18ADA67 EQ PUSH2 0x216 JUMPI DUP1 PUSH4 0xD5B6240E EQ PUSH2 0x240 JUMPI DUP1 PUSH4 0xD67A073F EQ PUSH2 0x268 JUMPI PUSH2 0xDE JUMP JUMPDEST DUP1 PUSH4 0x1F0255D2 EQ PUSH2 0x12E JUMPI DUP1 PUSH4 0x2760C57E EQ PUSH2 0x158 JUMPI DUP1 PUSH4 0x5424ECBC EQ PUSH2 0x182 JUMPI DUP1 PUSH4 0x5C36B186 EQ PUSH2 0x1AC JUMPI PUSH2 0xDE JUMP JUMPDEST CALLDATASIZE PUSH2 0xDE JUMPI CALLER PUSH20 0xFFFFFFFFFFFFFFFFFFFFFFFFFFFFFFFFFFFFFFFF AND PUSH32 0xE03F2FBFFD55ACEAA08B8E27B348AE6B7607E8A520DFE6A92B053C2CE0AC850A CALLVALUE PUSH1 0x40 MLOAD PUSH2 0xD4 SWAP2 SWAP1 PUSH2 0x83F JUMP JUMPDEST PUSH1 0x40 MLOAD DUP1 SWAP2 SUB SWAP1 LOG2 STOP JUMPDEST CALLER PUSH20 0xFFFFFFFFFFFFFFFFFFFFFFFFFFFFFFFFFFFFFFFF AND PUSH32 0xE03F2FBFFD55ACEAA08B8E27B348AE6B7607E8A520DFE6A92B053C2CE0AC850A CALLVALUE PUSH1 0x40 MLOAD PUSH2 0x124 SWAP2 SWAP1 PUSH2 0x83F JUMP JUMPDEST PUSH1 0x40 MLOAD DUP1 SWAP2 SUB SWAP1 LOG2 STOP JUMPDEST CALLVALUE DUP1 ISZERO PUSH2 0x139 JUMPI PUSH0 PUSH0 REVERT JUMPDEST POP PUSH2 0x142 PUSH2 0x27E JUMP JUMPDEST PUSH1 0x40 MLOAD PUSH2 0x14F SWAP2 SWAP1 PUSH2 0x872 JUMP JUMPDEST PUSH1 0x40 MLOAD DUP1 SWAP2 SUB SWAP1 RETURN JUMPDEST CALLVALUE DUP1 ISZERO PUSH2 0x163 JUMPI PUSH0 PUSH0 REVERT JUMPDEST POP PUSH2 0x16C PUSH2 0x2F0 JUMP JUMPDEST PUSH1 0x40 MLOAD PUSH2 0x179 SWAP2 SWAP1 PUSH2 0x83F JUMP JUMPDEST PUSH1 0x40 MLOAD DUP1 SWAP2 SUB SWAP1 RETURN JUMPDEST CALLVALUE DUP1 ISZERO PUSH2 0x18D JUMPI PUSH0 PUSH0 REVERT JUMPDEST POP PUSH2 0x196 PUSH2 0x2F6 JUMP JUMPDEST PUSH1 0x40 MLOAD PUSH2 0x1A3 SWAP2 SWAP1 PUSH2 0x83F JUMP JUMPDEST PUSH1 0x40 MLOAD DUP1 SWAP2 SUB SWAP1 RETURN JUMPDEST CALLVALUE DUP1 ISZERO PUSH2 0x1B7 JUMPI PUSH0 PUSH0 REVERT JUMPDEST POP PUSH2 0x1C0 PUSH2 0x33B JUMP JUMPDEST STOP JUMPDEST CALLVALUE DUP1 ISZERO PUSH2 0x1CD JUMPI PUSH0 PUSH0 REVERT JUMPDEST POP PUSH2 0x1D6 PUSH2 0x420 JUMP JUMPDEST PUSH1 0x40 MLOAD PUSH2 0x1E3 SWAP2 SWAP1 PUSH2 0x8CA JUMP JUMPDEST PUSH1 0x40 MLOAD DUP1 SWAP2 SUB SWAP1 RETURN JUMPDEST CALLVALUE DUP1 ISZERO PUSH2 0x1F7 JUMPI PUSH0 PUSH0 REVERT JUMPDEST POP PUSH2 0x200 PUSH2 0x445 JUMP JUMPDEST PUSH1 0x40 MLOAD PUSH2 0x20D SWAP2 SWAP1 PUSH2 0x8CA JUMP JUMPDEST PUSH1 0x40 MLOAD DUP1 SWAP2 SUB SWAP1 RETURN JUMPDEST CALLVALUE DUP1 ISZERO PUSH2 0x221 JUMPI PUSH0 PUSH0 REVERT JUMPDEST POP PUSH2 0x22A PUSH2 0x469 JUMP JUMPDEST PUSH1 0x40 MLOAD PUSH2 0x237 SWAP2 SWAP1 PUSH2 0x83F JUMP JUMPDEST PUSH1 0x40 MLOAD DUP1 SWAP2 SUB SWAP1 RETURN JUMPDEST CALLVALUE DUP1 ISZERO PUSH2 0x24B JUMPI PUSH0 PUSH0 REVERT JUMPDEST POP PUSH2 0x266 PUSH1 0x4 DUP1 CALLDATASIZE SUB DUP2 ADD SWAP1 PUSH2 0x261 SWAP2 SWAP1 PUSH2 0x911 JUMP JUMPDEST PUSH2 0x471 JUMP JUMPDEST STOP JUMPDEST CALLVALUE DUP1 ISZERO PUSH2 0x273 JUMPI PUSH0 PUSH0 REVERT JUMPDEST POP PUSH2 0x27C PUSH2 0x5C2 JUMP JUMPDEST STOP JUMPDEST PUSH0 PUSH1 0x1 PUSH0 SWAP1 SLOAD SWAP1 PUSH2 0x100 EXP SWAP1 DIV PUSH20 0xFFFFFFFFFFFFFFFFFFFFFFFFFFFFFFFFFFFFFFFF AND PUSH20 0xFFFFFFFFFFFFFFFFFFFFFFFFFFFFFFFFFFFFFFFF AND CALLER PUSH20 0xFFFFFFFFFFFFFFFFFFFFFFFFFFFFFFFFFFFFFFFF AND EQ DUP1 ISZERO PUSH2 0x2EB JUMPI POP PUSH4 0x1E13380 PUSH1 0x2 SLOAD PUSH2 0x2E8 SWAP2 SWAP1 PUSH2 0x969 JUMP JUMPDEST TIMESTAMP GT JUMPDEST SWAP1 POP SWAP1 JUMP JUMPDEST PUSH1 0x2 SLOAD DUP2 JUMP JUMPDEST PUSH0 PUSH4 0x1E13380 PUSH1 0x2 SLOAD PUSH2 0x309 SWAP2 SWAP1 PUSH2 0x969 JUMP JUMPDEST TIMESTAMP GT ISZERO PUSH2 0x318 JUMPI PUSH0 SWAP1 POP PUSH2 0x338 JUMP JUMPDEST TIMESTAMP PUSH4 0x1E13380 PUSH1 0x2 SLOAD PUSH2 0x32B SWAP2 SWAP1 PUSH2 0x969 JUMP JUMPDEST PUSH2 0x335 SWAP2 SWAP1 PUSH2 0x99C JUMP JUMPDEST SWAP1 POP JUMPDEST SWAP1 JUMP JUMPDEST PUSH0 PUSH0 SWAP1 SLOAD SWAP1 PUSH2 0x100 EXP SWAP1 DIV PUSH20 0xFFFFFFFFFFFFFFFFFFFFFFFFFFFFFFFFFFFFFFFF AND PUSH20 0xFFFFFFFFFFFFFFFFFFFFFFFFFFFFFFFFFFFFFFFF AND CALLER PUSH20 0xFFFFFFFFFFFFFFFFFFFFFFFFFFFFFFFFFFFFFFFF AND EQ PUSH2 0x3C9 JUMPI PUSH1 0x40 MLOAD PUSH32 0x8C379A000000000000000000000000000000000000000000000000000000000 DUP2 MSTORE PUSH1 0x4 ADD PUSH2 0x3C0 SWAP1 PUSH2 0xA29 JUMP JUMPDEST PUSH1 0x40 MLOAD DUP1 SWAP2 SUB SWAP1 REVERT JUMPDEST TIMESTAMP PUSH1 0x2 DUP2 SWAP1 SSTORE POP CALLER PUSH20 0xFFFFFFFFFFFFFFFFFFFFFFFFFFFFFFFFFFFFFFFF AND PUSH32 0xFD8D0C1DC3AB254EC49463A1192BB2423B3B851ADEDEC1AA94DCD362DC063C9D TIMESTAMP PUSH1 0x40 MLOAD PUSH2 0x416 SWAP2 SWAP1 PUSH2 0x83F JUMP JUMPDEST PUSH1 0x40 MLOAD DUP1 SWAP2 SUB SWAP1 LOG2 JUMP JUMPDEST PUSH1 0x1 PUSH0 SWAP1 SLOAD SWAP1 PUSH2 0x100 EXP SWAP1 DIV PUSH20 0xFFFFFFFFFFFFFFFFFFFFFFFFFFFFFFFFFFFFFFFF AND DUP2 JUMP JUMPDEST PUSH0 PUSH0 SWAP1 SLOAD SWAP1 PUSH2 0x100 EXP SWAP1 DIV PUSH20 0xFFFFFFFFFFFFFFFFFFFFFFFFFFFFFFFFFFFFFFFF AND DUP2 JUMP JUMPDEST PUSH4 0x1E13380 DUP2 JUMP JUMPDEST PUSH0 PUSH0 SWAP1 SLOAD SWAP1 PUSH2 0x100 EXP SWAP1 DIV PUSH20 0xFFFFFFFFFFFFFFFFFFFFFFFFFFFFFFFFFFFFFFFF AND PUSH20 0xFFFFFFFFFFFFFFFFFFFFFFFFFFFFFFFFFFFFFFFF AND CALLER PUSH20 0xFFFFFFFFFFFFFFFFFFFFFFFFFFFFFFFFFFFFFFFF AND EQ PUSH2 0x4FF JUMPI PUSH1 0x40 MLOAD PUSH32 0x8C379A000000000000000000000000000000000000000000000000000000000 DUP2 MSTORE PUSH1 0x4 ADD PUSH2 0x4F6 SWAP1 PUSH2 0xA29 JUMP JUMPDEST PUSH1 0x40 MLOAD DUP1 SWAP2 SUB SWAP1 REVERT JUMPDEST PUSH0 PUSH1 0x1 PUSH0 SWAP1 SLOAD SWAP1 PUSH2 0x100 EXP SWAP1 DIV PUSH20 0xFFFFFFFFFFFFFFFFFFFFFFFFFFFFFFFFFFFFFFFF AND SWAP1 POP DUP2 PUSH1 0x1 PUSH0 PUSH2 0x100 EXP DUP2 SLOAD DUP2 PUSH20 0xFFFFFFFFFFFFFFFFFFFFFFFFFFFFFFFFFFFFFFFF MUL NOT AND SWAP1 DUP4 PUSH20 0xFFFFFFFFFFFFFFFFFFFFFFFFFFFFFFFFFFFFFFFF AND MUL OR SWAP1 SSTORE POP DUP2 PUSH20 0xFFFFFFFFFFFFFFFFFFFFFFFFFFFFFFFFFFFFFFFF AND DUP2 PUSH20 0xFFFFFFFFFFFFFFFFFFFFFFFFFFFFFFFFFFFFFFFF AND PUSH32 0x4A9D367B1B0CD787BE10021F1C55CB49C9F2302334E6DF35C9621005EB222514 PUSH1 0x40 MLOAD PUSH1 0x40 MLOAD DUP1 SWAP2 SUB SWAP1 LOG3 POP POP JUMP JUMPDEST PUSH1 0x1 PUSH0 SWAP1 SLOAD SWAP1 PUSH2 0x100 EXP SWAP1 DIV PUSH20 0xFFFFFFFFFFFFFFFFFFFFFFFFFFFFFFFFFFFFFFFF AND PUSH20 0xFFFFFFFFFFFFFFFFFFFFFFFFFFFFFFFFFFFFFFFF AND CALLER PUSH20 0xFFFFFFFFFFFFFFFFFFFFFFFFFFFFFFFFFFFFFFFF AND EQ PUSH2 0x651 JUMPI PUSH1 0x40 MLOAD PUSH32 0x8C379A000000000000000000000000000000000000000000000000000000000 DUP2 MSTORE PUSH1 0x4 ADD PUSH2 0x648 SWAP1 PUSH2 0xA91 JUMP JUMPDEST PUSH1 0x40 MLOAD DUP1 SWAP2 SUB SWAP1 REVERT JUMPDEST PUSH4 0x1E13380 PUSH1 0x2 SLOAD PUSH2 0x663 SWAP2 SWAP1 PUSH2 0x969 JUMP JUMPDEST TIMESTAMP LT ISZERO PUSH2 0x6A5 JUMPI PUSH1 0x40 MLOAD PUSH32 0x8C379A000000000000000000000000000000000000000000000000000000000 DUP2 MSTORE PUSH1 0x4 ADD PUSH2 0x69C SWAP1 PUSH2 0xAF9 JUMP JUMPDEST PUSH1 0x40 MLOAD DUP1 SWAP2 SUB SWAP1 REVERT JUMPDEST PUSH0 SELFBALANCE SWAP1 POP PUSH0 DUP2 GT PUSH2 0x6EB JUMPI PUSH1 0x40 MLOAD PUSH32 0x8C379A000000000000000000000000000000000000000000000000000000000 DUP2 MSTORE PUSH1 0x4 ADD PUSH2 0x6E2 SWAP1 PUSH2 0xB61 JUMP JUMPDEST PUSH1 0x40 MLOAD DUP1 SWAP2 SUB SWAP1 REVERT JUMPDEST PUSH0 PUSH1 0x1 PUSH0 SWAP1 SLOAD SWAP1 PUSH2 0x100 EXP SWAP1 DIV PUSH20 0xFFFFFFFFFFFFFFFFFFFFFFFFFFFFFFFFFFFFFFFF AND PUSH20 0xFFFFFFFFFFFFFFFFFFFFFFFFFFFFFFFFFFFFFFFF AND DUP3 PUSH1 0x40 MLOAD PUSH2 0x731 SWAP1 PUSH2 0xBAC JUMP JUMPDEST PUSH0 PUSH1 0x40 MLOAD DUP1 DUP4 SUB DUP2 DUP6 DUP8 GAS CALL SWAP3 POP POP POP RETURNDATASIZE DUP1 PUSH0 DUP2 EQ PUSH2 0x76B JUMPI PUSH1 0x40 MLOAD SWAP2 POP PUSH1 0x1F NOT PUSH1 0x3F RETURNDATASIZE ADD AND DUP3 ADD PUSH1 0x40 MSTORE RETURNDATASIZE DUP3 MSTORE RETURNDATASIZE PUSH0 PUSH1 0x20 DUP5 ADD RETURNDATACOPY PUSH2 0x770 JUMP JUMPDEST PUSH1 0x60 SWAP2 POP JUMPDEST POP POP SWAP1 POP DUP1 PUSH2 0x7B4 JUMPI PUSH1 0x40 MLOAD PUSH32 0x8C379A000000000000000000000000000000000000000000000000000000000 DUP2 MSTORE PUSH1 0x4 ADD PUSH2 0x7AB SWAP1 PUSH2 0xC0A JUMP JUMPDEST PUSH1 0x40 MLOAD DUP1 SWAP2 SUB SWAP1 REVERT JUMPDEST PUSH1 0x1 PUSH0 SWAP1 SLOAD SWAP1 PUSH2 0x100 EXP SWAP1 DIV PUSH20 0xFFFFFFFFFFFFFFFFFFFFFFFFFFFFFFFFFFFFFFFF AND PUSH20 0xFFFFFFFFFFFFFFFFFFFFFFFFFFFFFFFFFFFFFFFF AND PUSH32 0xB2559DAA129AD136AAC2133AC6A0C75920ABBEF7D6663A017A94E181B13786C3 DUP4 PUSH1 0x40 MLOAD PUSH2 0x81B SWAP2 SWAP1 PUSH2 0x83F JUMP JUMPDEST PUSH1 0x40 MLOAD DUP1 SWAP2 SUB SWAP1 LOG2 POP POP JUMP JUMPDEST PUSH0 DUP2 SWAP1 POP SWAP2 SWAP1 POP JUMP JUMPDEST PUSH2 0x839 DUP2 PUSH2 0x827 JUMP JUMPDEST DUP3 MSTORE POP POP JUMP JUMPDEST PUSH0 PUSH1 0x20 DUP3 ADD SWAP1 POP PUSH2 0x852 PUSH0 DUP4 ADD DUP5 PUSH2 0x830 JUMP JUMPDEST SWAP3 SWAP2 POP POP JUMP JUMPDEST PUSH0 DUP2 ISZERO ISZERO SWAP1 POP SWAP2 SWAP1 POP JUMP JUMPDEST PUSH2 0x86C DUP2 PUSH2 0x858 JUMP JUMPDEST DUP3 MSTORE POP POP JUMP JUMPDEST PUSH0 PUSH1 0x20 DUP3 ADD SWAP1 POP PUSH2 0x885 PUSH0 DUP4 ADD DUP5 PUSH2 0x863 JUMP JUMPDEST SWAP3 SWAP2 POP POP JUMP JUMPDEST PUSH0 PUSH20 0xFFFFFFFFFFFFFFFFFFFFFFFFFFFFFFFFFFFFFFFF DUP3 AND SWAP1 POP SWAP2 SWAP1 POP JUMP JUMPDEST PUSH0 PUSH2 0x8B4 DUP3 PUSH2 0x88B JUMP JUMPDEST SWAP1 POP SWAP2 SWAP1 POP JUMP JUMPDEST PUSH2 0x8C4 DUP2 PUSH2 0x8AA JUMP JUMPDEST DUP3 MSTORE POP POP JUMP JUMPDEST PUSH0 PUSH1 0x20 DUP3 ADD SWAP1 POP PUSH2 0x8DD PUSH0 DUP4 ADD DUP5 PUSH2 0x8BB JUMP JUMPDEST SWAP3 SWAP2 POP POP JUMP JUMPDEST PUSH0 PUSH0 REVERT JUMPDEST PUSH2 0x8F0 DUP2 PUSH2 0x8AA JUMP JUMPDEST DUP2 EQ PUSH2 0x8FA JUMPI PUSH0 PUSH0 REVERT JUMPDEST POP JUMP JUMPDEST PUSH0 DUP2 CALLDATALOAD SWAP1 POP PUSH2 0x90B DUP2 PUSH2 0x8E7 JUMP JUMPDEST SWAP3 SWAP2 POP POP JUMP JUMPDEST PUSH0 PUSH1 0x20 DUP3 DUP5 SUB SLT ISZERO PUSH2 0x926 JUMPI PUSH2 0x925 PUSH2 0x8E3 JUMP JUMPDEST JUMPDEST PUSH0 PUSH2 0x933 DUP5 DUP3 DUP6 ADD PUSH2 0x8FD JUMP JUMPDEST SWAP2 POP POP SWAP3 SWAP2 POP POP JUMP JUMPDEST PUSH32 0x4E487B7100000000000000000000000000000000000000000000000000000000 PUSH0 MSTORE PUSH1 0x11 PUSH1 0x4 MSTORE PUSH1 0x24 PUSH0 REVERT JUMPDEST PUSH0 PUSH2 0x973 DUP3 PUSH2 0x827 JUMP JUMPDEST SWAP2 POP PUSH2 0x97E DUP4 PUSH2 0x827 JUMP JUMPDEST SWAP3 POP DUP3 DUP3 ADD SWAP1 POP DUP1 DUP3 GT ISZERO PUSH2 0x996 JUMPI PUSH2 0x995 PUSH2 0x93C JUMP JUMPDEST JUMPDEST SWAP3 SWAP2 POP POP JUMP JUMPDEST PUSH0 PUSH2 0x9A6 DUP3 PUSH2 0x827 JUMP JUMPDEST SWAP2 POP PUSH2 0x9B1 DUP4 PUSH2 0x827 JUMP JUMPDEST SWAP3 POP DUP3 DUP3 SUB SWAP1 POP DUP2 DUP2 GT ISZERO PUSH2 0x9C9 JUMPI PUSH2 0x9C8 PUSH2 0x93C JUMP JUMPDEST JUMPDEST SWAP3 SWAP2 POP POP JUMP JUMPDEST PUSH0 DUP3 DUP3 MSTORE PUSH1 0x20 DUP3 ADD SWAP1 POP SWAP3 SWAP2 POP POP JUMP JUMPDEST PUSH32 0x6F6E6C79206F776E657200000000000000000000000000000000000000000000 PUSH0 DUP3 ADD MSTORE POP JUMP JUMPDEST PUSH0 PUSH2 0xA13 PUSH1 0xA DUP4 PUSH2 0x9CF JUMP JUMPDEST SWAP2 POP PUSH2 0xA1E DUP3 PUSH2 0x9DF JUMP JUMPDEST PUSH1 0x20 DUP3 ADD SWAP1 POP SWAP2 SWAP1 POP JUMP JUMPDEST PUSH0 PUSH1 0x20 DUP3 ADD SWAP1 POP DUP2 DUP2 SUB PUSH0 DUP4 ADD MSTORE PUSH2 0xA40 DUP2 PUSH2 0xA07 JUMP JUMPDEST SWAP1 POP SWAP2 SWAP1 POP JUMP JUMPDEST PUSH32 0x4F6E6C7920726563697069656E74000000000000000000000000000000000000 PUSH0 DUP3 ADD MSTORE POP JUMP JUMPDEST PUSH0 PUSH2 0xA7B PUSH1 0xE DUP4 PUSH2 0x9CF JUMP JUMPDEST SWAP2 POP PUSH2 0xA86 DUP3 PUSH2 0xA47 JUMP JUMPDEST PUSH1 0x20 DUP3 ADD SWAP1 POP SWAP2 SWAP1 POP JUMP JUMPDEST PUSH0 PUSH1 0x20 DUP3 ADD SWAP1 POP DUP2 DUP2 SUB PUSH0 DUP4 ADD MSTORE PUSH2 0xAA8 DUP2 PUSH2 0xA6F JUMP JUMPDEST SWAP1 POP SWAP2 SWAP1 POP JUMP JUMPDEST PUSH32 0x6F776E6572206973207374696C6C206163746976650000000000000000000000 PUSH0 DUP3 ADD MSTORE POP JUMP JUMPDEST PUSH0 PUSH2 0xAE3 PUSH1 0x15 DUP4 PUSH2 0x9CF JUMP JUMPDEST SWAP2 POP PUSH2 0xAEE DUP3 PUSH2 0xAAF JUMP JUMPDEST PUSH1 0x20 DUP3 ADD SWAP1 POP SWAP2 SWAP1 POP JUMP JUMPDEST PUSH0 PUSH1 0x20 DUP3 ADD SWAP1 POP DUP2 DUP2 SUB PUSH0 DUP4 ADD MSTORE PUSH2 0xB10 DUP2 PUSH2 0xAD7 JUMP JUMPDEST SWAP1 POP SWAP2 SWAP1 POP JUMP JUMPDEST PUSH32 0x4E6F2046756E6473000000000000000000000000000000000000000000000000 PUSH0 DUP3 ADD MSTORE POP JUMP JUMPDEST PUSH0 PUSH2 0xB4B PUSH1 0x8 DUP4 PUSH2 0x9CF JUMP JUMPDEST SWAP2 POP PUSH2 0xB56 DUP3 PUSH2 0xB17 JUMP JUMPDEST PUSH1 0x20 DUP3 ADD SWAP1 POP SWAP2 SWAP1 POP JUMP JUMPDEST PUSH0 PUSH1 0x20 DUP3 ADD SWAP1 POP DUP2 DUP2 SUB PUSH0 DUP4 ADD MSTORE PUSH2 0xB78 DUP2 PUSH2 0xB3F JUMP JUMPDEST SWAP1 POP SWAP2 SWAP1 POP JUMP JUMPDEST PUSH0 DUP2 SWAP1 POP SWAP3 SWAP2 POP POP JUMP JUMPDEST POP JUMP JUMPDEST PUSH0 PUSH2 0xB97 PUSH0 DUP4 PUSH2 0xB7F JUMP JUMPDEST SWAP2 POP PUSH2 0xBA2 DUP3 PUSH2 0xB89 JUMP JUMPDEST PUSH0 DUP3 ADD SWAP1 POP SWAP2 SWAP1 POP JUMP JUMPDEST PUSH0 PUSH2 0xBB6 DUP3 PUSH2 0xB8C JUMP JUMPDEST SWAP2 POP DUP2 SWAP1 POP SWAP2 SWAP1 POP JUMP JUMPDEST PUSH32 0x5472616E73666572206661696C65640000000000000000000000000000000000 PUSH0 DUP3 ADD MSTORE POP JUMP JUMPDEST PUSH0 PUSH2 0xBF4 PUSH1 0xF DUP4 PUSH2 0x9CF JUMP JUMPDEST SWAP2 POP PUSH2 0xBFF DUP3 PUSH2 0xBC0 JUMP JUMPDEST PUSH1 0x20 DUP3 ADD SWAP1 POP SWAP2 SWAP1 POP JUMP JUMPDEST PUSH0 PUSH1 0x20 DUP3 ADD SWAP1 POP DUP2 DUP2 SUB PUSH0 DUP4 ADD MSTORE PUSH2 0xC21 DUP2 PUSH2 0xBE8 JUMP JUMPDEST SWAP1 POP SWAP2 SWAP1 POP JUMP INVALID LOG2 PUSH5 0x6970667358 0x22 SLT KECCAK256 PUSH30 0xD717F574BC12086D330808E188579D471B26E4F7D1609CE3BB619B4C2F70 PUSH24 0x64736F6C634300081E003300000000000000000000000000 "
				},
				"gasEstimates": {
					"creation": {
						"codeDepositCost": "633200",
						"executionCost": "infinite",
						"totalCost": "infinite"
					},
					"external": {
						"": "1743",
						"Drain()": "infinite",
						"INACTIVITY_PERIOD()": "369",
						"canRecipientDrain()": "infinite",
						"changeRecipeint(address)": "30641",
						"lastPing()": "2448",
						"owner()": "2529",
						"ping()": "26061",
						"recipient()": "2508",
						"secondsUntilDrain()": "infinite"
					}
				},
				"methodIdentifiers": {
					"Drain()": "d67a073f",
					"INACTIVITY_PERIOD()": "b18ada67",
					"canRecipientDrain()": "1f0255d2",
					"changeRecipeint(address)": "d5b6240e",
					"lastPing()": "2760c57e",
					"owner()": "8da5cb5b",
					"ping()": "5c36b186",
					"recipient()": "66d003ac",
					"secondsUntilDrain()": "5424ecbc"
				}
			},
			"storageLayout": {
				"storage": [
					{
						"astId": 3,
						"contract": "contracts/Willcontract.sol:Will",
						"label": "owner",
						"offset": 0,
						"slot": "0",
						"type": "t_address"
					},
					{
						"astId": 5,
						"contract": "contracts/Willcontract.sol:Will",
						"label": "recipient",
						"offset": 0,
						"slot": "1",
						"type": "t_address"
					},
					{
						"astId": 7,
						"contract": "contracts/Willcontract.sol:Will",
						"label": "lastPing",
						"offset": 0,
						"slot": "2",
						"type": "t_uint256"
					}
				],
				"types": {
					"t_address": {
						"encoding": "inplace",
						"label": "address",
						"numberOfBytes": "20"
					},
					"t_uint256": {
						"encoding": "inplace",
						"label": "uint256",
						"numberOfBytes": "32"
					}
				}
			},
			"userdoc": {
				"kind": "user",
				"methods": {},
				"version": 1
			}
		}
	}
}